:020000040800F2
:100000000050002035010008670100086901000860
:100010006B0100086D0100086F010008000000007E
:100020000000000000000000000000007101000856
:100030007301000800000000750100080D020008AF
:1000400065010008650100086501000865010008F8
:1000500065010008650100086501000865010008E8
:1000600065010008650100086501000865010008D8
:1000700065010008650100086501000865010008C8
:1000800065010008650100086501000865010008B8
:1000900065010008650100086501000865010008A8
:1000A0006501000865010008650100086501000898
:1000B0006501000865010008650100086501000888
:1000C0006501000865010008650100086501000878
:1000D0006501000865010008650100086501000868
:1000E00065010008650100086501000800000000C6
:1000F0000000000000000000000000000000000000
:1001000000000000000000005FF808F10023064A2C
:1001100006499818884204D2054959589950043321
:10012000F5E700F01FB900BF000000200400002028
:100130005804000810B5094B094A934203D2002223
:1001400043F8042BF8E700F0C9F800F017F804466C
:1001500000F0E8F8204600F0F7F800BF04000020A7
:1001600008000020FEE7FEE7FEE7FEE7FEE7FEE709
:08017000FEE7FEE7FEE7FEE7F3
:040178000D0100086D
:10017C001E4B13B51A684FF47A73B2FBF3F21C4B97
:10018C00013A5A601B4AF02182F8231000229A602F
:10019C0007221A601020012100F08EF84FF4005352
:1001AC00ADF8043003238DF806301348102301A951
:1001BC008DF8073000F02EF80F484FF400510F4C1B
:1001CC0000F078F84FF4FA7323602368002BFCD10D
:1001DC0009484FF4005100F06BF8084B4FF4FA72D9
:1001EC001A602368002BFCD1E6E700BF000000205A
:1001FC0010E000E000ED00E00010014004000020E1
:10020C00034B1A6812B11A68013A1A60704700BFA2
:10021C0004000020CB78F0B5DA0648BF8A7809884C
:10022C0003F00F0548BF154311F0FF0F1DD00468F4
:10023C0000220127974007EA0106BE4211D1970020
:10024C004FF00F0C0CFA07FC05FA07F724EA0C0424
:10025C00282B44EA070401D1466102E0482B08BF71
:10026C0006610132082AE4D10460FF291FD94468D1
:10027C00002202F108060127B74007EA0106BE4238
:10028C0011D197004FF00F0C0CFA07FC05FA07F789
:10029C0024EA0C04282B44EA070401D1466102E04D
:1002AC00482B08BF06610132082AE2D14460F0BD38
:1002BC000161704741617047044B9A6909B1104361
:1002CC0001E022EA00009861704700BF0010024074
:1002DC0070B50D4B0D4D0024ED1AAD101E46AC4201
:1002EC0004D056F8242090470134F8E7084B094D08
:1002FC000024ED1AAD101E46AC4204D056F8242052
:10030C0090470134F8E770BD780100087C010008C3
:10031C007C0100087C01000838B5064D064C641BB6
:10032C00A41005EB840524B155F8043D013C984715
:10033C00F9E738BD7C0100087C010008044A054B34
:10034C00D16801F4E0610B43D360BFF34F8FFEE73C
:10035C0000ED00E00400FA05384B82B01A6842F058
:10036C0001021A605968364A0A405A601A6822F02B
:10037C00847222F480321A601A6822F480221A6085
:10038C005A6822F4FE025A604FF41F029A6000224F
:10039C00009201921A6842F480321A601A6802F4D0
:1003AC0000320192009A01320092019A1AB9009A15
:1003BC00B2F5A06FF2D11A6812F4003218BF012204
:1003CC000192019A012A05D01E4B4FF000629A60EF
:1003DC0002B070471C4A116841F01001116011689D
:1003EC0021F003011160116841F0020111605A689B
:1003FC005A605A685A605A6842F480625A605A6865
:10040C0022F47C125A605A6842F4E8125A601A6854
:10041C0042F080721A601968084A8901FBD551684C
:10042C0021F003015160516841F0020151605A689A
:10043C0002F00C02082AFAD1C6E700BF00100240F5
:0C044C000000FFF800ED00E0002002407E
:0404580000A24A04B0
:0400000508000135B9
:00000001FF
