:020000040800F2
:10000000005000200D010008A1010008A90100080E
:10001000B1010008B9010008C1010008000000009A
:10002000000000000000000000000000C9010008FE
:10003000D101000800000000D90100086103000898
:100040009901000899010008990100089901000828
:100050009901000899010008990100089901000818
:100060009901000899010008990100089901000808
:1000700099010008990100089901000899010008F8
:1000800099010008990100089901000899010008E8
:1000900099010008990100089901000899010008D8
:1000A00099010008990100089901000899010008C8
:1000B00099010008990100089901000899010008B8
:1000C00099010008990100089901000899010008A8
:1000D0009901000899010008990100089901000898
:1000E000990100089901000899010008000000002A
:1000F0000000000000000000000000000000000000
:1001000000000000000000005FF808F180B584B036
:1001100000AF0D4BBB600D4B7B60BB683B6004E0E8
:100120003B681A1D3A6000221A607A683B689A425E
:10013000F6D800F09FFA00F0A7F8F86000F0D0FAC7
:10014000F86800F0EBFA00BFA4080020E8080020DF
:1001500080B584B000AF0D4BFB600D4BBB600D4B09
:100160007B60BB683B6007E03B681A1D3A60FA6839
:10017000111DF96012681A607A683B689A42F3D8D8
:1001800000F0D2FA1037BD4680BD00BF58600008AD
:1001900000000020A408002080B400AFFEE700BFEC
:1001A00080B400AFFEE700BF80B400AFFEE700BF41
:1001B00080B400AFFEE700BF80B400AFFEE700BF31
:1001C00080B400AFFEE700BF80B400AFFEE700BF21
:1001D00080B400AFFEE700BF80B400AFFEE700BF11
:0801E00080B400AFFEE700BF90
:0401E80051010008B9
:1001F00080B483B000AF03463960FB7197F90730D4
:10020000002B0BDA0D49FB7903F00F03043B3A682E
:10021000D2B21201D2B20B441A7609E0084997F91A
:1002200007303A68D2B21201D2B20B4483F80023ED
:100230000C37BD465DF8047B704700BF00ED00E061
:1002400000E100E080B582B000AF78607B68B3F178
:10025000807F01D3012311E00A4B7A6822F07F42AC
:10026000013A5A604FF0FF300F21FFF7C1FF054BF5
:1002700000229A60034B07221A60002318460837B1
:10028000BD4680BD10E000E080B582B000AF1C48E4
:1002900000F04EFB1B4B1A681B4BA3FB02139B0980
:1002A0001846FFF7CFFF1020012100F0C5F94FF4E9
:1002B00000533B800323BB701023FB703B46134865
:1002C000194600F0E1F800237B6010484FF400511C
:1002D00000F0A4F94FF4FA7000F01CF80B484FF44A
:1002E000005100F08DF94FF4FA7000F013F87B68BC
:1002F00001337B600648796800F0D6FAE5E700BF75
:10030000A85E000800000020D34D621000100140DC
:10031000BC5E000880B483B000AF78607A68064B9A
:100320001A6000BF044B1B68002BFBD10C37BD4685
:100330005DF8047B704700BFA408002080B400AFC4
:10034000064B1B68002B04D0044B1B685A1E034B42
:100350001A60BD465DF8047B704700BFA40800200A
:1003600080B500AFFFF7EAFF80BD00BF80B584B065
:1003700000AF7860144B1B68002B02D1124B134A5C
:100380001A60114B1B68FB607B68033323F0030387
:100390007B600D4B1A687B681A440D4B9A4207D953
:1003A00000F07CFA03460C221A604FF0FF3306E09F
:1003B000054B1A687B681A44034B1A60FB681846A1
:1003C0001037BD4680BD00BFA8080020E808002007
:1003D000004C002080B584B000AFF860B9607A604E
:1003E000FB68012B05D1B868796800F009F803466D
:1003F00001E04FF0FF3318461037BD4680BD00BF07
:1004000080B485B000AF786039601C4B1B68002B4E
:1004100002D11A4B01221A600023FB6023E0184B23
:100420001B6803F00103002B01D1FB6820E0154B92
:100430001B6803F00103002B01D1FB6818E000BF2B
:100440004FF060431B78DBB2DBB203F00103002BFB
:10045000F6D04FF060427B68591C79601B781370AE
:10046000FB680133FB60FA683B689A42D7DB3B6864
:1004700018461437BD465DF8047B7047AC08002071
:10048000800E00E0000E00E080B489B000AF78601C
:1004900039600023FB6100233B610023BB61002323
:1004A000FB6000237B610023BB603B68DB7803F0CB
:1004B0000F03FB613B68DB7803F01003002B04D0D3
:1004C0003B689B78FA691343FB613B681B88DBB28E
:1004D000002B44D07B681B687B610023BB6138E044
:1004E000BB69012202FA03F3FB603B681B881A46D2
:1004F000FB6813403B613A69FB689A4226D1BB69AD
:100500009B00FB60FB680F2202FA03F3BB60BB6831
:10051000DB437A6913407B61FB68FA6902FA03F3F3
:100520007A6913437B613B68DB78282B05D1BB6973
:1005300001229A407B685A6108E03B68DB78482BCF
:1005400004D1BB6901229A407B681A61BB690133FF
:10055000BB61BB69072BC3D97B687A691A603B68AA
:100560001B88FF2B46D97B685B687B610023BB61DE
:100570003AE0BB690833012202FA03F3FB603B68EF
:100580001B881A46FB6813403B613A69FB689A4234
:1005900027D1BB699B00FB60FB680F2202FA03F3C3
:1005A000BB60BB68DB437A6913407B61FB68FA6917
:1005B00002FA03F37A6913437B613B68DB78282BEB
:1005C00005D1BB69083301229A407B685A613B68B8
:1005D000DB78482B05D1BB69083301229A407B6840
:1005E0001A61BB690133BB61BB69072BC1D97B6849
:1005F0007A695A602437BD465DF8047B704700BFB6
:1006000080B483B000AF78600B467B807A887B68CB
:100610001A610C37BD465DF8047B704780B483B027
:1006200000AF78600B467B807A887B685A610C3714
:10063000BD465DF8047B704780B483B000AF78603E
:100640000B46FB70FB78002B06D0094B084A9169DA
:100650007A680A439A6106E0054B054A91697A680F
:10066000D2430A409A610C37BD465DF8047B70475F
:100670000010024080B582B000AF154A154BD31A66
:100680009B103B6000237B6007E0124B7A6853F8B5
:10069000223098477B6801337B607A683B689A42D6
:1006A000F3D30D4A0D4BD31A9B103B6000237B60A4
:1006B00007E00A4B7A6853F8223098477B68013389
:1006C0007B607A683B689A42F3D30837BD4680BDA9
:1006D000EC010008E8010008EC010008EC0100084A
:1006E00080B582B000AF0B4A0B4BD31A9B103B6016
:1006F0003B687B6008E07B685A1E074B53F822304A
:1007000098477B68013B7B607B68002BF3D10837FF
:10071000BD4680BDEC010008EC01000880B483B048
:1007200000AF7860FEE700BF80B500AF154B154AFB
:10073000126842F001021A60124A124B5968124BB9
:100740000B4053600F4A0F4B1B6823F0847323F454
:10075000803313600B4B0B4A126822F480221A601C
:10076000084B084A526822F4FE025A60054B4FF4C7
:100770001F029A6000F00CF8044B4FF000629A6080
:1007800080BD00BF001002400000FFF800ED00E057
:1007900080B500AF00F002F880BD00BF80B483B028
:1007A00000AF00237B6000233B603A4B394A12685C
:1007B00042F480321A60374B1B6803F400333B600D
:1007C0007B6801337B603B68002B03D17B68B3F50A
:1007D000A06FF0D12F4B1B6803F40033002B02D025
:1007E00001233B6001E000233B603B68012B4BD1C0
:1007F000294B294A126842F010021A60264B264AF9
:10080000126822F003021A60234B234A126842F056
:1008100002021A601F4B1F4A52685A601D4B1D4A44
:1008200052685A601B4B1B4A526842F480625A60FD
:10083000184B184A526822F47C125A60154B154A1C
:10084000526842F4E8125A60124B124A126842F09F
:1008500080721A6000BF0F4B1B6803F00073002BFF
:10086000F9D00C4B0B4A526822F003025A60094B34
:10087000084A526842F002025A6000BF054B5B68AA
:1008800003F00C03082BF9D10C37BD465DF8047B4F
:10089000704700BF0010024000200240014B186862
:1008A000704700BF300400200FB410B5074B82B072
:1008B00004AC54F8042B186823468168019400F0B6
:1008C0006FF802B0BDE8104004B07047300400205B
:1008D000F0B5044689B008460D4600F031F8A3682B
:1008E00002219A89DFF844E000F1010C012704AEEF
:1008F0000291910404950590CDF80CC0CDF818E054
:100900000797019606D4596E42F4005221F4005123
:100910009A8159662046194601AA02F081FD0028F5
:100920000CBF0A204FF0FF3009B0F0BDCC5E0008CC
:10093000024B01461868FFF7CBBF00BF3004002010
:1009400020F0030110F00300C0F1000051F8043B57
:1009500000F1040C4FEACC0C6FF000021CBF22FA2D
:100960000CF213434FF0010C4CEA0C2C4CEA0C4CEB
:10097000A3EB0C0222EA030212EACC1204BF51F8E4
:10098000043B0430F4D013F0FF0F1FBF013013F409
:100990007F4F013013F47F0F18BF0130704700BF45
:1009A0002DE9F04FC9B01C4689460A920D9002F01D
:1009B000EFFE00680F941590FFF7C2FF0D9D189091
:1009C0001DB1AB6B002B00F00981B9F80C2093B27C
:1009D0009F040AD4D9F8641042F4005321F4005162
:1009E000A9F80C30C9F864109BB21E0740F1C08012
:1009F000D9F81020002A00F0BB8003F01A030A2B5C
:100A000000F0C28038ACA44608942B940025002442
:100A1000CDE91645002311932D932C931A93199326
:100A2000109366460A9D2B78002B00F0DB80252B67
:100A300000F0D8806A1C02E0252B00F08B80137830
:100A400014460132002BF7D10A98251A7DB12C9B50
:100A50002D9A01330A982A44072B86E821002D920B
:100A60002C9300F3A4800836109929441091237820
:100A7000002B00F0A4800023651C94F801804FF047
:100A8000FF341A468DF88F300E9309930A950B9414
:100A90002B460133A8F12001582900F2F483DFE846
:100AA00011F03802F203F2030303F203F203F2033C
:100AB000F203F203F2033F023402F2036000350353
:100AC000F20376037D037D037D037D037D037D03B8
:100AD0007D037D037D03F203F203F203F203F203CD
:100AE000F203F203F203F203F20352039D03F20353
:100AF0009D03F203F203F203F2038E03F203F20307
:100B0000D003F203F203F203F203F203A302F203AF
:100B1000F203C302F203F203F203F203F203F2035D
:100B2000F203F203F203F2030A031C039D039D0385
:100B30009D03D9021C03F203F203E202F203EE0268
:100B40000A021C024B02F2035402F203A300F20356
:100B5000F2037B020A99651A78E70E9C0F916442B2
:100B60000E94099D45F00405099593F8008090E7DF
:100B70000D98494601F0E4F9A0B9B9F80C3003F03A
:100B80001A030A2B7FF43EAFB9F90E30002BFFF6A3
:100B900039AF0D9849460A9A234601F093F949B0B6
:100BA000BDE8F08F4FF0FF3049B0BDE8F08F0D98F1
:100BB00049462BAA04F014F840B938AE54E72D9BEF
:100BC00023B10D9849462BAA04F00AF8B9F80C3065
:100BD0005B06E7D4109849B0BDE8F08F284602F0D4
:100BE00087FAF2E60A9C42E7099C0A93A20640F1C2
:100BF00006820F9DEB1D23F0070303F1080CD3E9D8
:100C00000045CDF83CC001234FF0000A8DF88FA0BD
:100C10000B99002905DBDDF824C02CF0800CCDF801
:100C200024C054EA050040F047830B99002940F0A6
:100C30004383002B40F0B984DDF824C01CF0010F81
:100C400000F0B38448AF3023089D07F8413DEC1B0A
:100C5000DDF82CC000256445A8BFA446CDF830C0FF
:100C60001495BAF1000F02D00C9D01350C95099B2B
:100C700013F00203129302D00C9D02350C95DDF89F
:100C800024C01CF0840CCDF84CC040F012830E9DA3
:100C9000DDF830C0CCEB050BBBF1000F40F309834E
:100CA000BBF1100F2D992C9ADFF828A527DD1B9793
:100CB00010255746A2460D9C06E0ABF1100BBBF188
:100CC000100F06F1080617DD01321031072A2D91A9
:100CD0002C9237607560F0DD204649462BAA03F060
:100CE0007FFF00287FF472AFABF1100BBBF1100F48
:100CF0002D992C9A38AEE7DC5446BA461B9F013238
:100D00000BEB010C072ACDF8B4C02C9286E8000C3E
:100D100000F39A849DF88FA00836BAF1000F0FD027
:100D20002C9B0CF1010C01330DF18F010122072BDB
:100D3000CDF8B4C02C9386E8060000F31C84083676
:100D4000129B73B12C9B0CF1020C013324A90222DB
:100D5000072BCDF8B4C02C9386E8060000F3188466
:100D60000836139D802D00F048830B9A151B002D2B
:100D70003DDD102D2C9BDFF860A42CDD51460B943B
:100D8000AA464FF0100B62460D9C0D4606E0AAF1F4
:100D9000100ABAF1100F06F1080617DD0133103200
:100DA000072B2D922C9386E82008F0DD204649463B
:100DB0002BAA03F015FF00287FF408AFAAF1100A50
:100DC000BAF1100F2D9A2C9B38AEE7DC94460B9CA1
:100DD0002A46554692460133AC44072BCDF8B4C0A1
:100DE0002C93C6F800A0756000F3B9830836099DFE
:100DF000EB0500F1A2822C9BA4440133072BCDF814
:100E0000B4C0376074602C9300F393830836099C58
:100E1000620740D50E9D0C982C1A002C3BDD102C3F
:100E20002C9BDFF8B0A322DD10256246DDF834806C
:100E3000574604E0103C102C06F1080615DD01337E
:100E40001032072B2D922C9337607560F2DD4046EF
:100E500049462BAA03F0C4FE00287FF4B7AE103C2D
:100E6000102C2D9A2C9B38AEE9DC9446BA460133FF
:100E7000A444072BCDF8B4C02C93C6F800A074602E
:100E800009DD0D9849462BAA03F0AAFE00287FF43D
:100E90009DAEDDF8B4C0109C0C980E9DA842ACBF6E
:100EA000241864191094BCF1000F40F04E83002305
:100EB0002C9338AEB6E5DDF824C00A931CF020036D
:100EC00000F0CA810F9CE31D23F0070303F108051E
:100ED0000F95D3E90045002396E6DDF824C00F9D69
:100EE0000A930F9BB94804351C684FF078083023EB
:100EF0004CF0020C0F958DF89030CDF824C00025F1
:100F00008DF891801A9002237EE693F800802B22C0
:100F1000BFE593F80080002A7FF4BBAD2022B8E53E
:100F20000F9C0F9D2468291D002C0E94FFF615AE12
:100F30000F9193F80080ACE5DDF824C04CF0200C54
:100F4000CDF824C093F80080A3E50F9C4FF0000A71
:100F500027680A938DF88FA0251D002F00F05C866E
:100F60000B9C3846002CC0F207865146224602F000
:100F70001FFF002800F09C860B9CC01BA042B8BF3E
:100F800004460F9524EAE475CDF82CA0CDF850A0C6
:100F90000C959DF88FA064E6099D8C4CAF060A93D2
:100FA0001A948DF88F2047D5DDF83CC00CF107036B
:100FB00023F0070303F108040F94D3E90045DDF89B
:100FC00024C01CF0010F00F0F48254EA050000F088
:100FD000F08230234CF0020C8DF890308DF8918027
:100FE000CDF824C002230FE6DDF824C00A934CF0AC
:100FF000100CCDF824C0099CA2063FF5FAAD099C5F
:10100000E30600F13083DDF824C01CF0400F00F04F
:101010002A83DDF83CC00025BCF800400CF1040C2C
:101020000123CDF83CC0EFE5099D694CAF060A935A
:101030008DF88F201A94B7D4099DED0640F1C9842C
:10104000DDF83CC00025DCF800400CF1040CCDF8C4
:101050003CC0B4E7DDF824C04CF0400CCDF824C00F
:1010600093F8008015E593F800801946B8F16C0FED
:1010700000F06D85099D45F01005099509E5DDF83D
:1010800024C00A931CF0200F8DF88F2000F0B0844C
:101090000F9C2168109CE5172B460F9D22460435B6
:1010A0000F95C1E90023BDE4099D45F001050995AF
:1010B00093F80080EDE40A930F9B0F9D1A680124BA
:1010C000002304359A460C948DF8B8200F958DF8BE
:1010D0008F300B9314932EAFC9E5099C0A93A50694
:1010E0008DF88F203BD50F9DE91D21F00701D1E937
:1010F000002308310F9114461D46002A73F1000C9D
:10110000C0F2CA839DF88FA0012381E593F8008087
:10111000581CB8F12A0F00F0AE86A8F13001092959
:1011200098BF002300F20C8610F8018B03EB8303B9
:1011300001EB4303A8F130010929F5D943EAE37330
:101140000B930346A6E4DDF824C00A934CF0100C80
:10115000CDF824C0099C8DF88F20A506C3D4DDF8F6
:1011600024C01CF0100F40F0B082DDF824C01CF049
:10117000400F00F0AA82DDF83CC0BCF900400CF141
:10118000040CE51722462B46CDF83CC0B5E7099D77
:1011900045F08005099593F800807AE40024A8F1D1
:1011A00030010E94204613F8018B00EB800001EB18
:1011B0004000A8F130010929F5D90E906AE4099D93
:1011C00045F00805099593F8008062E4045F000883
:1011D000F05E0008245F0008D05E00080F9D0A93AF
:1011E000EB1D23F0070303F1080C8DF88F20CDF8D9
:1011F0003CC0D3E90045CDE91645DDE9160103F011
:1012000035FC0128DDE9160140F05083002200235F
:1012100004F0F2FA002840F031859DF88FA00325F4
:101220000C95099D9E4F25F080059E4B0024099545
:1012300000250B94B8F1470FD8BF1F46032414951F
:101240000FE5099D0A9345F010050995DDF824C0C6
:101250001CF020037FF436AEDDF824C01CF0100231
:1012600040F03B82DDF824C01CF0400300F03582E2
:10127000DDF83CC01346BCF800400CF1040C00251E
:10128000CDF83CC0C0E40A938DF88F20B8F1000F70
:101290003FF495AC00234FF0010C9A46CDF830C0D6
:1012A0008DF8B8808DF88F300B93149364462EAF71
:1012B000DDE4DDF8B4C030E5012B00F0E380022B63
:1012C0000DF1DF0318D1DDF868C0194604F00F00F6
:1012D00022091CF8000042EA05722B09087052EA44
:1012E00003000F4614461D4601F1FF31EED1089D63
:1012F000CDE91E23EC1BABE4E00840EA457004F0A6
:101300000702E908303250EA010C1F461A70044601
:101310000D4603F1FF33EFD1099CCDE91C01E00735
:10132000394640F1B880302A00F0B580089D1F464C
:101330003023EC1B01F8013C8AE4B8F1650F40F35F
:10134000B780DDE9160100220023CDF81CC004F0AF
:1013500049FADDF81CC0002800F02E812C9B524970
:1013600001330CF1010C0122072BCDF8B4C02C93F2
:1013700086E8060000F361830836259B119CA34292
:1013800003DB099DEF077FF542AD2C9B189C0133D1
:10139000159DA444072BCDF8B4C0356074602C9320
:1013A00000F3DE830836119D6C1E002C7FF72FADF5
:1013B000102C2C9BDFF8F4A040F398811025624696
:1013C000DDF83480574604E00836103C102C40F31A
:1013D0008B8101331032072B2D922C93376075606F
:1013E000F2DD404649462BAA03F0FAFB00287FF4C1
:1013F000EDAB2D9A2C9B38AEE7E70E980C99451A69
:10140000002D7FF7B2AC102D2C9BDFF8A0A02CDDB7
:1014100051461294AA464FF0100B62460D9C0D46A1
:1014200006E0AAF1100ABAF1100F06F1080617DD5E
:1014300001331032072B2D922C9386E82008F0DD23
:10144000204649462BAA03F0CBFB00287FF4BEAB15
:10145000AAF1100ABAF1100F2D9A2C9B38AEE7DCD6
:101460009446129C2A46554692460133AC44072BBB
:10147000CDF8B4C02C93C6F800A0756000F3FF81CE
:10148000083672E4002D08BF0A2C80F03B8130340E
:1014900048AF07F8414D089DEC1BFFF7D9BB00BFD3
:1014A000E45E0008E05E0008205F0008D05E0008EF
:1014B000119C012C2C9C40F3A48101340CF10105FA
:1014C0000123072C2D952C943760736000F3B481B1
:1014D00008361898013415990544072C2D952C943D
:1014E0003160706000F3B4810836DDE91601002236
:1014F000002304F077F9002840F0BD80119A0134F0
:10150000531E01371D44072C2C942D9537607360B2
:1015100000F386810836DDF864C00134AC44199DBF
:1015200027AB072CCDF8B4C02C9486E828007FF7B1
:101530006DAC0D9849462BAA03F052FB00287FF4AE
:1015400045ABDDF8B4C038AE61E40D9849462BAA2E
:1015500003F046FB00283FF4AAACFFF737BB0D9819
:1015600049462BAA03F03CFB00287FF42FABDDF8A3
:10157000B4C038AE3BE40D9849462BAA03F030FBCB
:1015800000287FF423ABDDF8B4C038AEFFF7D8BB3A
:101590000D9849462BAA03F023FB00287FF416ABD5
:1015A000DDF8B4C038AEFFF7DCBB0B9C38AFFFF7FB
:1015B0004FBB0223FFF728BB259B002B40F349823A
:1015C000119C149DDDF84480AC42A8BF2C46002C31
:1015D000B8440BDD2C9BA4440133072BCDF8B4C0D9
:1015E000376074602C9300F3F0820836149D24EA6F
:1015F000E4742C1B002C40F3AD80102C2C9BDFF8E6
:10160000D8A640F30D8251461025BA466246DDF851
:1016100034B00F4604E00836103C102C40F3FC8137
:1016200001331032072B2D922C9337607560F2DD59
:10163000584649462BAA03F0D3FA00287FF4C6AADD
:101640002D9A2C9B38AEE7E70D9849462BAA03F05C
:10165000C7FA00287FF4BAAA9DF88FA0DDF8B4C0BD
:1016600038AEFFF75ABB0F9D01232C6804350F9548
:101670000025FFF7C9BA119B5F1E002F7FF74BAF04
:10168000102FDFF854A640F3EF804FF01008DDF87C
:1016900034B004E00836103F102F40F3E5800134E9
:1016A0001035072C2D952C94C6F800A0C6F80480A0
:1016B000F0DD584649462BAA03F092FA00287FF441
:1016C00085AA2D9D2C9C38AEE5E70F9D2C6804352E
:1016D0000F95E51722462B460FE50F9D2C68043524
:1016E0000F950025FFF790BA9446BA460133A444FB
:1016F000072BCDF8B4C02C93C6F800A074607FF718
:1017000085AB16E70DF1DF0B204629460A220023A0
:1017100004F0C2F830328BF80020204629460A2215
:10172000002304F0B9F804460D4654EA050C5F4660
:101730000BF1FF3BE8D1089DEC1BFFF789BA0D9830
:1017400049462BAA03F04CFA00287FF43FAADDF8A3
:10175000B4C038AE149D259C2F44119DAC4240DB93
:10176000099DE8073DD41198C7EB0805041BAC425E
:10177000B8BF2546002D0BDD2C9BAC440133072B55
:10178000CDF8B4C0376075602C9300F354820836EE
:1017900025EAE575641B002C7FF739AB102C2C9BD8
:1017A000DFF834A5A2DD10256246DDF83480574607
:1017B00003E00836103C102C96DD01331032072B65
:1017C0002D922C9337607560F3DD404649462BAA75
:1017D00003F006FA00287FF4F9A92D9A2C9B38AE65
:1017E000E8E7189D2C9BAC44159D01333560189D8E
:1017F000072BCDF8B4C075602C9300F30082083637
:10180000B1E7099DE9073FF558AE01340CF1010538
:101810000123072C2D952C94376073607FF77AAEE7
:101820000D9849462BAA03F0DBF900287FF4CEA9D6
:101830002D9D2C9C38AE6EE60D9849462BAA03F0E0
:10184000CFF900287FF4C2A92D9D2C9C38AE40E62C
:101850000D9849462BAA03F0C3F900287FF4B6A9D6
:101860002D9D2C9C38AE40E601343D44072C2D952F
:101870002C94C6F800A077607FF74CAED0E70D98A7
:1018800049462BAA03F0ACF900287FF49FA9DDF8A4
:10189000B4C038AEFFF769BA4FF02D0A644265EB69
:1018A00045058DF88FA00123FFF7B2B903F0DEF8EC
:1018B000002800F01B810B9D28F0200A013500F064
:1018C0006C82BAF1470F04D10B9D002D08BF012592
:1018D0000B95DDF824C0DDE916234CF4807C002B49
:1018E000CDF848C0C0F25082DDE91645CDE920456B
:1018F0004FF0000BB8F1660F00F03482B8F1460FDC
:1019000000F08C82BAF1450F0ABF0B9C0B9D651C41
:10191000022025A926AA29AB8DE821000392049371
:1019200002910D98DDE9202300F006FCB8F1670F65
:10193000074602D0B8F1470F05D1DDF824C01CF0EE
:10194000010F00F03B82BAF1460F07EB050400F0EF
:10195000A881DDE920010022002303F043FF0028D5
:1019600040F09D81299B9C4206D930215A1C299226
:101970001970299B9C42F9D8DB1BBAF1470F1193D0
:1019800000F07481B8F1650F40F39482B8F1660FEE
:1019900000F00682259C1494119C149DAC4200F327
:1019A000D481DDF824C01CF0010F40F0538225EAF9
:1019B000E5732C464FF06708BBF1000F40F06481DF
:1019C000129D0C930995CDF82CB09DF88FA0FFF7D0
:1019D00048B9099C640640F1A680DDF83CC00025AA
:1019E000BCF800400CF1040CCDF83CC0FFF7E7BA9E
:1019F000DDF824C01CF0100F40F08D80DDF824C00D
:101A00001CF0400F00F026810F9C109D23680434C9
:101A10000F941D80FFF706B894463A465746924603
:101A20000133A444072BCDF8B4C02C93C6F800A012
:101A300074603FF784AE08368CE60D9849462BAAB1
:101A400003F0CEF800287FF4C1A8DDF8B4C038AEAA
:101A500093E42C9A9C4901320CF1010C0120072AD5
:101A6000CDF8B4C02C923160706063DC08361C463F
:101A70002CB9119D1DB9099DED077FF5C8A92C9BB7
:101A8000159D189A01333560189D6244072B2D92DD
:101A900075602C9300F3478108366442002C40F3B4
:101AA0008680102CDFF830A240F39E80514610252E
:101AB000BA46DDF834800F4604E00836103C102C9E
:101AC00040F38F8001331032072B2D922C93376017
:101AD0007560F2DD404649462BAA03F081F80028E4
:101AE0007FF474A82D9A2C9B38AEE7E7099C774FBA
:101AF000774B4FF0030C24F0800409940B90CDF841
:101B000030C01490B8F1470FD8BF1F4664469DF807
:101B10008FA0FFF7A6B80F9C109D236804340F9484
:101B20001D60FEF77FBF0F9D2C6804350F950025C3
:101B3000FFF745BA0D9849462BAA03F051F8002843
:101B40007FF444A8259CDDF8B4C038AE90E7099C2A
:101B5000013344F02004099491F80180FEF799BF05
:101B60000D9849462BAA03F03BF800287FF42EA8D5
:101B7000DDF8B4C038AE16E4CDF82CA0FEF7E0FED8
:101B80000F950B9D20EAE07C0446CDF830C01495FB
:101B90009DF88FA0FFF765B80D9849462BAA03F072
:101BA0001FF800287FF412A82D9A2C9B38AEDDF880
:101BB00044C00133119C9444072BCDF8B4C02C933E
:101BC000376074607FF722A9B3E40D9849462BAAC9
:101BD00003F006F800287EF4F9AFDDF8B4C038AEA3
:101BE00004E5394657468A4601332244072B2D9295
:101BF0002C93C6F800A07460CEDC0836D7E70D98A9
:101C000049462BAA02F0ECFF00287EF4DFAF259CAA
:101C1000DDF8B4C038AEA6E50B9CBA46062C28BF4A
:101C2000062424EAE47C0B9714970F95CDF830C076
:101C3000284FFFF716B80D9849462BAA02F0D0FF9F
:101C400000287EF4C3AF259C1199DDF8B4C00C1BAD
:101C500038AE9DE5DDF83CC0109CDCF800300CF19E
:101C6000040CCDF83CC01C60FEF7DCBE259BDC1CE0
:101C700034DB0B9C9C4231DB14938DE64FF02D0A34
:101C80008DF88FA0FFF7CBBA129D4FF02D0A099562
:101C900000250C938DF88FA00B95FEF7E5BF23462A
:101CA0006AE63B78302B00F0C080259D2C4450E63E
:101CB00024EAE47CCDF830C00B9C0F950B90149077
:101CC0009DF88FA0FEF7CDBF205F0008EC5E0008F6
:101CD000E85E0008185F0008D05E0008A8F102085E
:101CE000591E00292591BABF49422D232B230929CA
:101CF0008DF89C808DF89D3062DC302330318DF87A
:101D00009E308DF89F1028AB119D27AA119C9A1A1E
:101D1000012D1992144440F3A4800134002524EAD3
:101D2000E473149548E60D9849462BAA02F058FF33
:101D300000287EF44BAF259C2D9A2C9B38AEACE648
:101D4000002403460B94FEF7A5BE149C119D002CA5
:101D5000D4BFC4F1020401242C4424EAE4734FF0FC
:101D6000670829E60B9C032025A926AA29AB019424
:101D700000900392049302910D98DDE9202300F076
:101D8000DBF90B9D0746DEE51799169801F1004136
:101D9000209021914FF02D0BACE506240B9498E593
:101DA000259D0B9C002D149578DD002C4BD1099DB1
:101DB000E80748D4149C24EAE473FDE5299BDBE59D
:101DC0000DF1AA023E4DCB1785FB0150C3EBA000DD
:101DD00000EB8003A1EB43010928134601F1300217
:101DE0001A70014603F1FF32ECDC00F130010DF115
:101DF000AB04C9B2944203F8011C5DD90DF19D00FA
:101E00001A4601E012F8011BA24200F8011FF9D1A5
:101E10000DF5907CC3EB4C03F63B75E70B9D03205F
:101E200025A926AA29AB0195A2E7DDE92001002218
:101E3000002303F0D7FC00287FF437AFC5F101057C
:101E400025952C4485E50B9D6C1C149D2C4424EA9F
:101E5000E473B1E5149D4FF067086C1C24EAE47349
:101E6000AAE5DDF824C01CF001037FF456AF1493FB
:101E700024EAE473A0E50F9DDDF83CC02D680CF169
:101E80000401002D93F801800B950F910346BEF6D7
:101E900000AE4FF0FF340B94FEF7FBBD2CB9099D4B
:101EA000E90702D401231C4686E50B9DAC1C24EAFD
:101EB000E47381E5259B13E70DF19E0324E700BF42
:101EC000676666662DE9F0474F6EADF58D6D884605
:101ED0001997D8F81C70B1F80CA0B1F80E900797BC
:101EE000D8F824701AAC4FF480652AF0020A002654
:101EF00069460094049402950595ADF80CA0ADF8E0
:101F00000E90099706960546FEF74AFD041E07DB6C
:101F10002846694601F0D0F8B04218BF4FF0FF34B0
:101F2000BDF80C305B0605D5B8F80C3043F0400323
:101F3000A8F80C3020460DF58D6DBDE8F08700BF88
:101F40002F4B70B5064618680C4610B1826B002AFC
:101F500036D0A589ABB219070CD52269AAB113F006
:101F600001011ED0636900215B42A361A160F2B14F
:101F7000002070BDDA063AD55B0724D4226945F00B
:101F80000803A3819BB2002AE9D103F42071B1F5C3
:101F9000007FE4D03046214601F0FEFBA389226990
:101FA000DDE7980758BF6169A160002AE0D1A389E5
:101FB0001A06DDD543F04003A3814FF0FF3070BD1A
:101FC00001F096F8C5E7216B49B104F1400399424D
:101FD00003D0304601F058F9A58900232363226914
:101FE00025F024050021ADB222606160C7E745F00D
:101FF0004005092333604FF0FF30A58170BD00BF5D
:10200000300400202DE9F04F03690D6983B09D4233
:10201000834600F38C80013D01F1140400F1140AA1
:1020200054F825205AF825300132B3FBF2F8AA0003
:10203000914600925244A1440192B8F1000F3ED063
:1020400000263046224653468C4652F8047B1968D7
:102050001FFA87FE3F0C0EFB086E07FB08F606EB27
:102060001E461FFA8EFECEEB000E8FB2B0B2774442
:10207000C0EB114000EB2740BFB247EA0047914553
:1020800043F8047B4FEA20404FEA1646DDD2009A1F
:1020900061465AF8023093B9019A131F9A450CD23F
:1020A00052F8043C4BB9A2F1080302E01A68043B61
:1020B0001AB99A4505F1FF35F8D3CBF810505846B8
:1020C00002F006FA00282EDB08F101085346002230
:1020D00054F8046B1868B1B2511A87B2360C3944FF
:1020E000C6EB104000EB214289B241EA0241A14512
:1020F00043F8041B4FEA2242EAD25AF825200AEBA1
:10210000850382B91A1F92450BD253F8042C42B9A9
:10211000083B02E01A68043B1AB99A4505F1FF35FD
:10212000F8D3CBF81050404603B0BDE8F08F002044
:1021300003B0BDE8F08F00BF2DE9F04F016C9BB0FC
:10214000044692469B46279D41B1436C01229A402A
:102150004B608A6001F0C6FF00232364BBF1000FCF
:10216000D94633DB00232B60A54B1A4609EA03034B
:10217000934214D0504659460022002303F032FB0C
:10218000804648B3269E289D01233360002D00F031
:10219000CA809C48286001381BB0BDE8F08F269D9E
:1021A00042F20F732B60BAF1000F00F0A580964841
:1021B000289E002EF0D0C378002B00F0B68000F1EE
:1021C0000803289D2B601BB0BDE8F08F01232BF086
:1021D00000492B60CB46C7E719AA18AB8DE80C0065
:1021E000204652465B4602F003FA5FEA19550A9010
:1021F00040F08B80189F199D6FF482633D449D428F
:10220000C0F295821F3305F212425B1B09FA03F3F9
:102210002AFA02F243EA020003F006F80126013D21
:10222000B846A1F1F87116960022784B02F0BEFE76
:102230006DA3D3E9002303F06DF86DA3D3E9002368
:1022400002F0B6FE064628460F4602F0FDFF6AA3DE
:10225000D3E9002303F05EF802460B4630463946C8
:1022600002F0A6FE06460F4603F0EEFA3946079046
:1022700000223046002303F0BFFA002840F02982F4
:10228000079E162E00F222826149524601EBC601DA
:102290005B46D1E9000103F0CDFA002800F04C8242
:1022A000013E079600260E96C5EB0805013D0695F2
:1022B00000F1268200250895079E002EC0F21782A5
:1022C000069D0D963544002606950C96249D092DF5
:1022D0002DD8052DC4BF043D2495249EC8BF0025DC
:1022E000A6F10203D8BF0125032B22D8DFE813F0A3
:1022F000B7039E02C0039A04464A434BC9F3130036
:1023000000280CBF1046184652E7CBF3130343F0E6
:102310007F51CDF858805046A5F2FF3541F4401169
:10232000DDF8608080E73C4836E7C31C49E70025BC
:102330002495002565642946204601F0ADFE4FF046
:10234000FF390126099025952064CDF83C900B9625
:10235000199B002BC0F2D280079E0E2E00F3CE8078
:102360002B4B03EBC603D3E90001CDE9040125990A
:102370000029C0F28083DDE904235946504603F06A
:10238000F3F803F061FA054602F05EFFDDE904238D
:1023900002F0C0FF02460B465046594602F006FEC8
:1023A000099A05F13003B9F1010F06460F46137083
:1023B00002F1010B64D00022184B02F0ABFF0022A7
:1023C000002306460F4603F00DFA002840F08180F6
:1023D000DDF82480099DC844DDE904AB05F102095C
:1023E000039428E0AFF3008061436F63A787D23F77
:1023F000B3C8608B288AC63FFB799F501344D33FF4
:102400000000F07F215F0008405F00080000F83FF7
:10241000605F0008345F0008205F0008000024406F
:1024200002F078FF0022002306460F4603F0DAF997
:10243000002840F0C18352465B463046394603F0DF
:1024400093F803F001FA054602F0FEFE52465B46A1
:1024500002F060FF02460B463046394602F0A6FD08
:1024600005F1300EC14509F801EC4C4606460F4611
:102470004FF00002A74B09F10109D1D1A346039CFB
:1024800032463B463046394602F092FD06460F463C
:102490003246DDE904013B4603F0AEF940B9DDE91F
:1024A000040132463B4603F09DF990B1EB0710D58D
:1024B0001BF8015C099A05E09A4200F0298413F8A0
:1024C000015C9B46392D0BF1FF33F5D06A1CD2B26B
:1024D0001A7020460A9901F005FE079E269D731C7E
:1024E000289E00228BF800202B60002E00F0258310
:1024F0000998C6F800B01BB0BDE8F08F0B9D002D09
:1025000000F00381249E012E40F3DC820C9E09F131
:10251000FF37BE42C0F28983F71BB9F1000FC0F24A
:102520008784089D4B46089E20461E440896069EBA
:1025300001211E44069601F077FE064665B1069815
:10254000002809DD03460899AB42A8BF2B46C91AEB
:10255000C01A0891ED1A06900C9A002A1DDD0B9BFB
:10256000002B00F05883002F11DD31463A462046FB
:1025700001F002FF064631460A9A204601F05EFE4F
:102580000A998046204601F0ADFDCDF82880DDF89F
:1025900030E0BEEB070240F08F822046012101F0BF
:1025A00043FE80460D98002805DD414620460D9AE1
:1025B00001F0E2FE80462499012940F3C182002700
:1025C0000D98002840F0AF820120069B034413F0D1
:1025D0001F0300F0A180C3F12002042A40F3B78456
:1025E0000899069AC3F11C0319441A4408911D4422
:1025F00006920899002905DD0A99089A204601F0FB
:1026000009FF0A90069A002A04DD4146204601F09F
:1026100001FF80460E9B002B40F06A82B9F1000F4B
:1026200040F3A6820B98002840F088800B9D0A9FFB
:10263000DDF824B006E0394620460A22002301F0E6
:102640005BFD074638464146FFF7DCFC30300BF8AF
:1026500005000135A945EEDCDDF824B082460A9775
:10266000B9F1010FACBFCB440BF1010B00250A9966
:102670000122204601F0CEFE41460A9001F028FFDB
:10268000002840F309831BF8012C099905E09942C1
:1026900000F08B8213F8012C9B46392A0BF1FF3393
:1026A000F5D001321A704146204601F01BFD002E84
:1026B0003FF40FAF2DB1B54203D02946204601F0BB
:1026C00011FD3146204601F00DFD02E701260E9670
:1026D000EAE5079802F0B8FD32463B4603F082F87F
:1026E00000287FF4CDAD079E013E0796C8E5079E02
:1026F000089DAD1B0895754200260C950D96E5E5E5
:102700006D42002608950696D6E50C9F089D0B9E07
:1027100014E700BF000024401C23DDF820E00698E9
:102720009E441844CDF820E01D44069061E7A74878
:10273000401B0AFA00F06FE50E90B5E5002D05DDAF
:1027400031462A46204601F065FE0646002F40F03D
:10275000E9823746099D09984D4408950AF001051C
:102760000B95DDF82890451C0AE001F0C5FC3946C0
:1027700006460A222046002301F0BEFC074601352A
:1027800041464846FFF73EFC31468346484601F045
:102790009FFE414603903A46204601F0BDFEC268C6
:1027A000691E03460BF1300A0691002A40F093811E
:1027B00019464846029301F08BFE029B02461946D9
:1027C0002046029201F08EFC029A2AB9249B1BB982
:1027D0000B98002800F09383039B002BC0F23482F7
:1027E00005D1249818B90B99002900F02D82002AF0
:1027F00000F3AC82DDF820E005F801AC7545AB468E
:1028000000F0B48249460A220023204601F074FCFD
:10281000BE428146314620464FF00A024FF0000387
:10282000A3D101F069FC06460746A8E700260B96EF
:10283000079EDDF894E0B6440EF10109B9F1000FEE
:10284000CDF83CE04E4640F350810021172E6164E4
:102850000AD9012204235B0003F11400B04211469F
:1028600002F10102F7D96164204601F015FC0E2E39
:10287000099020643FF66CAD002D3FF469AD079DD3
:10288000CDE912AB002D40F31C82514B05F00F0235
:1028900003EBC2032D11D3E90067EB0640F1CD81B4
:1028A0004C4B50465946D3E9082302F05DFECDE972
:1028B000100105F00F054FF003088DB1DFF814A1EA
:1028C00030463946EE0705D5DAE9002308F101085C
:1028D00002F020FD6D100AF1080AF3D106460F46FA
:1028E000DDE9100132463B4602F03EFE82468B4651
:1028F0000E9D45B1504659460022374B02F07CFFF1
:10290000002840F0AA82404602F09EFC52465B46F8
:1029100002F000FD0022314B02F04AFB0646A1F115
:102920005077B9F1000F00F05A81079DC8461795FE
:102930000B9D002D00F02382254B002003EBC803E4
:1029400053E90223264902F00FFE32463B4602F0CD
:102950002DFBCDE910015946504602F075FF0546A2
:1029600002F072FC02460B465046594602F01EFB2E
:102970003035099ECDE90401DDE90423DDE91001CC
:10298000EDB2357006F1010B02F054FF002840F063
:10299000AB82DDE9042300200F4902F007FB024669
:1029A0000B46DDE9100102F045FF002840F0A2824D
:1029B000B8F1010F40F38181B044CDF85090A246A8
:1029C000C146DDE90467DDE9104519E0EEFBFFFFD4
:1029D000605F0008286000080000F03F00001C4015
:1029E0000000E03F0020A84902F0E0FA22462B4612
:1029F00002F002FF002840F07B82CB4500F05A81B4
:102A0000204629460022A14B02F084FC00229F4B65
:102A100004460D463046394602F07CFC0F46064619
:102A200002F012FF804602F00FFC02460B463046D1
:102A3000394602F0BBFA08F130085FFA88F82246FE
:102A40002B460BF8018B06460F4602F0D5FE3246A8
:102A50003B460028C6D0179E5446079639E5002607
:102A60000B96259800283CDD06460F908146ECE643
:102A700001260B96F5E7B9F1000F3FF77CAC40F06B
:102A8000C680DDE904010022814B02F043FC52467E
:102A90005B4602F0C5FEC8464E4600287CD0259D08
:102AA000DDF824B0ED4307954146204601F01AFBBE
:102AB000002E7FF406AE0CE50A99204601F05CFC7E
:102AC0000A906AE5169D002D00F0B88103F23343A9
:102AD0000C9F089D27E50146204601F003FB0122DB
:102AE0007AE6012625960F96B14600216164BBE681
:102AF0000A98414601F0ECFC0028BFF68FADDDF8E6
:102B00001CE00A990EF1FF3E20460A220023CDF870
:102B10001CE001F0F1FA0A900B98002840F00982BD
:102B2000DDF83C907AE5D8F8103008EB830318699B
:102B300001F02CFBC0F1200047E50998FFF72CBB02
:102B4000BAF1000F7FF43BADCBF31303002B40F041
:102B50007C812BF000473F0D3F05002F3FF430AD47
:102B6000089A069B0132013308920693012727E554
:102B7000249902297FF756ADB9F1000F8FD1414654
:102B80004B460522204601F0B7FA804641460A9896
:102B900001F09EFC002882DD079D31230135079559
:102BA000099D2B7005F1010B7EE7079809993123E8
:102BB000013007900B7076E5A346039C89E44046FC
:102BC00002F042FB02460B465046594602F0A2FB79
:102BD0000022304B02F0ECF90646A1F15077504646
:102BE000594600222A4B02F0E1F932463B46824622
:102BF0008B4602F01FFE002840F0BD80324607F1F0
:102C000000435046594602F0F7FD002855D04FF0DA
:102C10000008464643E70A990C9A204601F0ACFBAF
:102C20000A90BAE401260B9602E60C9D0D9E7B1BD2
:102C30001E440C970D9600276FE4DDE912014FF05A
:102C40000208CDE9100138E6002ACDF82890D946CF
:102C500011DD0A990122204601F0DCFB41460A9071
:102C600001F036FC002840F35D81BAF1390F00F025
:102C70001B8109F1310A069B354683F800A003F158
:102C8000010B3E460FE500BF0000F03F000024406E
:102C90000000144000001C4003D11AF0010F7FF423
:102CA000F2AC5B4613F8012C9B46302A03F1FF334C
:102CB000F8D0F8E4DDF850905446DDE912ABFFF7A8
:102CC00047BB079E7542002D00F0C280A34B05F064
:102CD0000F0203EBC203D3E90023DDE9120102F086
:102CE00019FB2D1182468B4600F02E819C4E4FF031
:102CF0000208EA0705D5D6E9002308F1010802F029
:102D000009FB6D1006F10806F3D182468B46EFE50C
:102D1000079E099D30222A700136312207961A70CB
:102D2000FFF7D7BB7168204601F0B6F93369054655
:102D30009A1C920006F10C010C3001F083F8204639
:102D40002946012201F066FB074603E5BAF1390F77
:102D5000CDF8289000F0A880069D0AF101032B70A1
:102D60003546069E06F1010B3E469CE43546CDF8FD
:102D700028903E467BE44FF0000846460CE7774932
:102D800008F1FF3501EBC50132463B46D1E90001B0
:102D9000109502F0BFFACDE914015946504602F0F1
:102DA00053FD054602F050FA02460B46504659467E
:102DB00002F0FCF8DDF824E03035B8F1010F0646EA
:102DC0000F468EF800500EF1010B1ED0099D6B1EB0
:102DD00003EB080A0022634B02F09CFA0F460646FA
:102DE00002F032FD804602F02FFA08F13008024668
:102DF0000B463046394602F0D9F805F8018F5545A3
:102E0000E8D1109D06460F46AB440022564BDDE943
:102E1000140102F0CDF832463B4602F0EDFC0028EA
:102E20004DD0179E099A07961BF8015CFFF74ABB25
:102E3000089E0023C9EB0605FFF775BB189B0C9F86
:102E4000C3F13603089DFFF76EBB5746FFF7B8BBCB
:102E5000DDE912AB4FF002084AE5B9F1000F3FF48B
:102E6000AEAE0F9E002E7FF728AF00223D4B50469E
:102E7000594602F04FFA824608F101008B4602F0F3
:102E8000E3F902460B465046594602F043FA002247
:102E9000364B02F08DF8079D0646013DA1F15077B3
:102EA0001795DDF83C8043E53546069B069E3922A2
:102EB000327003F1010B3E460999FFF7EEBBDDE9E5
:102EC00014230020284902F071F832463B4602F0F4
:102ED000B1FC00283FF4F1AE5B4613F8012C9B4691
:102EE000302A03F1FF33F8D0179D0795FFF7F1BAA9
:102EF00045465446179E099A0796FFF7E3BABAF17A
:102F0000390FCDF82890CFD0039B3546002B069E75
:102F1000C8BF0BF1310A86F800A006F1010B3E464E
:102F2000FFF7C1BB7FF4A7AE1AF0010F3FF4A3AEC9
:102F30009BE6314620460A220023DDF83C9001F052
:102F4000DBF80646FFF76ABB4FF00208D0E43FF417
:102F500050ABC3F13C03FFF7E0BB00BF605F00086C
:102F600028600008000024400000E03F00001C40F2
:102F70008B892DE9F0419AB20D46110780463CD469
:102F80006A6843F40063002AAB8159DDAC6A002C07
:102F90004BD09BB203F48052002192B2D8F800606B
:102FA000C8F80010002A4FD02A6D5F0705D5696860
:102FB0002B6B521A0BB1EB6BD21A4046E969002316
:102FC000A047441C4AD0AB892A6923F400639BB212
:102FD00000212A60DA04AB8169604CD4296BC8F8FF
:102FE000006011B305F14003994202D0404600F061
:102FF0004BF900202863BDE8F0812E69AEB191073E
:103000002C680CBF6B6900232E60A41BAB600AE028
:10301000324623466F6A4046E969B8470028C0EB4C
:103020000404064404DD002CF2DC0020BDE8F0813D
:10303000AB894FF0FF3043F04003AB81BDE8F08136
:10304000EA6B002AA2DCF0E701234046E969A047C9
:10305000431C02461ED0AB89AC6AA6E7D8F8003004
:103060005BB9AA89296922F4006292B26B60D30429
:10307000AA812960B2D52865B0E71D2B01D0162B97
:1030800013D1A9892B6921F400610022A9812B6049
:103090006A60A3E7D8F80030002BDCD01D2B01D0EC
:1030A000162BC5D1C8F80060BFE7AB8943F04003D9
:1030B000AB81BDE8F08100BF10B5044682B008B115
:1030C000836B53B1B1F90C0008B902B010BD2046B2
:1030D00002B0BDE81040FFF74BBF019100F008F8C7
:1030E0000199EFE7014900F025BB00BF254D00081D
:1030F0002DE9F04F846B83B00746002C65D17D68C5
:1031000033480423032107F53B72F863C7F8E41240
:10311000C7F8E822C7F8E04205F15C00AB812C60FB
:103120006C60AC606C66EC812C616C61AC612146BA
:10313000082200F063FFDFF89CB0BE68DFF898A0BB
:10314000DFF89890DFF8988001230922ED61C5F837
:1031500020B0C5F824A0C5F82890C5F82C802146D9
:10316000F381B28134607460B460746634617461F8
:10317000B461082206F15C00019300F03FFFFD6896
:1031800012200222F661C6F820B0C6F824A0C6F8C4
:103190002890C6F82C802146A881EA812C606C60BA
:1031A000AC606C662C616C61AC6105F15C0008225E
:1031B00000F024FF019BED61C5F820B0C5F824A004
:1031C000C5F82890C5F82C80BB6303B0BDE8F08F2C
:1031D000E5300008E14A0008054B00083D4B0008B7
:1031E000614B0008704700BF704700BFF8B5234D22
:1031F0000F46044600F04CFFAB685E6826F00306FD
:10320000F11B01F6EF7121F47F6121F00F01A1F5AF
:103210008057B7F5805F07DB2046002101F04EFCA8
:10322000AB683344984204D0204600F033FF0020BE
:10323000F8BD2046794201F041FC01300DD0104B21
:10324000AA681968F61B46F001062046C91B56609D
:10325000196000F01FFF0120F8BD2046002101F099
:103260002DFCAB68C21A0F2ADEDD064D04492D681D
:1032700042F00102401B5A600860D5E7900400202C
:10328000BC0800209C0800202DE9F0410D460646B0
:10329000002955D000F0FCFE55F8041CDFF870C181
:1032A000A5F1080421F00103E218DCF808005768D2
:1032B000904227F0030768D011F00101576032D027
:1032C0000021D0194068C00706D43B44906800290B
:1032D0004DD0D268C260906043F001026260E3505A
:1032E000E1B9B3F5007F2DD35A0A042A69D89809A9
:1032F000383041000CEB810CDCF808204449624571
:1033000065D0516821F003018B4202D29268944546
:10331000F7D1D368E360A2609C60D4603046BDE81A
:10332000F04100F0B7BE55F8085C0CF10808641BCA
:10333000A0682B44404542D0E568C560A860C0E75E
:10334000BDE8F081DB089A1001209040DCF8041001
:103350000CEBC3039A680143A260E360CCF804104D
:1033600030469C60D460BDE8F04100F093BE294D2A
:10337000A842AED143F00102CCF81440CCF8104082
:10338000E060A0606260E350C8E71F44CB0707D449
:1033900055F8081C641AE368A2680F44D3609A6069
:1033A0001D4B47F001021B6862609F42CCF8084049
:1033B000B4D31A4B30461968FFF718FFAEE7012166
:1033C0007FE7142A0BD802F15B00410092E78010DE
:1033D0000125854048681346284348609AE7542AE7
:1033E00003D8180B6E30410084E7B2F5AA7F03D8EA
:1033F000D80B773041007DE740F254518A4203D820
:10340000980C7C30410075E7FC217E2072E700BFFC
:10341000900400209804002098080020B80800209C
:103420002DE9F04F936883B0164681460C462BB3C6
:103430008B89190726D5226922B303F0020292B2C2
:103440003568002A2CD04FF0000ADFF8E4B2D046ED
:10345000D84534BF43465B4652464846B8F1000F54
:103460004FD0E169676AB847002856DDB3688244E7
:103470001B1AC0EB0808B360002BE9D1002003B091
:10348000BDE8F08F48462146FEF75AFD002840F07F
:103490004681A389356803F0020292B2002AD2D194
:1034A00013F0010A42D1D046B8F1000F23D09A059B
:1034B000A76876D5B845C0F0A48013F4906F40F0AB
:1034C000B2802068BB4651465A4600F031FDA268E2
:1034D0002168D21B01EB0B03A26023604246B36854
:1034E00092449B1AC2EB0808B360002BC6D0A38994
:1034F000B8F1000FDBD1D5F800A0D5F8048008356D
:10350000D2E7D5F800A0D5F804800835A0E74846F2
:103510002146FFF7D1FD002859D0A38943F040038D
:103520004FF0FF30A38103B0BDE8F08F92460192C7
:1035300093469046B8F1000F2BD0019F002F64D026
:1035400020682169C24534BF5346434688421F461E
:10355000D4F808C0626903D99444634500F3AE808F
:10356000934236DB1346676A4846E1695A46B847D4
:10357000071ED2DDBAEB070A3AD0B368BB44DB1BA7
:10358000C7EB0808B360002B3FF478AFB8F1000F29
:10359000D3D10027D5F800B0D5F8048001970835BD
:1035A000C8E720682369984202D86369984572D2B7
:1035B000B84538BF47463A46514600F0B9FCA368C3
:1035C0002268DB1B3A44A3602260002B9FD03A465E
:1035D00085E71A465946009300F0AAFC009BA168B3
:1035E0002268C91ABAEB070A1344A1602360C4D148
:1035F00048462146FFF760FD00288ED1CDF804A093
:10360000BBE720684746C3465DE758460A21424665
:1036100000F0CEFB00287DD000F1010A0127CBEBA2
:103620000A0A01978CE7226821696769C1EB020CDD
:1036300007EB47070CF1010207EBD77742447F10F5
:10364000974234BF17463A465B054DD5114648466A
:10365000CDF800C000F010F9DDF800C08346002866
:1036600060D062462169CDF800C000F0EBFBA28972
:10367000DDF800C022F4906242F08002A2810BEBE0
:103680000C00CCEB0702C4F810B067612060A260A8
:103690004746C34617E76FF00042904538BF4246A1
:1036A00092FBF3F202FB03F3676A4846E169524674
:1036B000B84700287FF731AF024610E76246594607
:1036C000CDF800C000F034FCDDF800C023684846A7
:1036D000634423602146FFF7EFFCDDF800C00028BB
:1036E0007FF41BAF674645E74846CDF800C000F0C1
:1036F000DDFFDDF800C083460028C0D148462169BF
:10370000FFF7C2FDA3890C2223F080039BB2C9F806
:10371000002003E7012708F1010A019710E74FF0A5
:10372000FF30ACE60C23C9F80030A389F6E600BFF1
:1037300000FCFF7F2DE9F04110F53877884619D05D
:1037400000267D68BC68013D0ED4A389013D012B94
:1037500006D9B4F90E302046013301D0C0470643E4
:103760006B1C04F16804F0D13F68002FE9D13046AA
:10377000BDE8F0813E463046BDE8F0810048704724
:103780006C040020014B1868704700BF8C040020B7
:103790000048704734040020F0B58B8991B09AB28C
:1037A00096070C46054637D4B1F90E10002917DBF1
:1037B00001AA01F01FFB002810DB029B03F47043F9
:1037C000B3F500514F424F41B3F5004F2CD0A389C0
:1037D0004FF4806643F40063A3810BE0A3899AB29F
:1037E00012F0800F43F40063A38114BF40264FF40E
:1037F000806600272846314600F03EF8A38900285D
:1038000029D01B4A43F08003EA63A3812060206132
:103810006661A7B911B0F0BD01F1430301220B604D
:103820000B614A6111B0F0BD124AA36A9342CED136
:10383000A3894FF480663343A381E664DAE7284620
:10384000B4F90E1001F0EAFA0028E3D0A38943F09E
:103850000103A381DEE79A05DCD404F1430243F0BF
:1038600002030121A381226022616161D2E700BFCE
:10387000E53000083D4B00082DE9F04F01F10B0544
:10388000162D83B0064627D935F0070527D4A9425F
:1038900025D8304600F0FCFBB5F5FC7F26D2C14FA1
:1038A0004FEAD50C07EBCC03DC689C4200F0D281D8
:1038B0006368E26823F0030323445868A16840F07A
:1038C0000105CA60304691605D6000F0E3FB08349A
:1038D000204603B0BDE8F08F1025A942D9D90024B5
:1038E0000C232046336003B0BDE8F08F5FEA552C0F
:1038F00000F08980BCF1040F00F260814FEA951C52
:103900000CF1380C4FEA4C01A64F07EB8101CC6853
:10391000A14205D10CE0002B79DAE468A14207D07E
:10392000626822F00302531B0F2BF4DD0CF1FF3C05
:103930000CF1010C9B4B3C6903F1080E744500F03F
:103940007E81616821F003014A1B0F2A00F3648124
:10395000002AC3F814E0C3F810E069DAB1F5007F7B
:1039600080F03A81C9088A104FF0010808FA02F87D
:1039700003EBC1015A68886848EA0202A060E1606E
:103980005A608C60C4604FEAAC03012098409042BA
:103990005BD8024206D12CF0030C400002420CF12D
:1039A000040CFAD007EBCC084446E146E3689C429D
:1039B00007D146E1002A80F25781DB689C4200F083
:1039C0004081596821F003014A1B0F2AF2DD1C4691
:1039D00054F808CFD96845F0010942F001081D44A8
:1039E000C3F804903046CCF80C10C1F808C07D61D3
:1039F0003D61C5F80CE0C5F808E0C5F80480AA50A0
:103A000000F048FB64E77E214FF03F0C7CE7224446
:103A10005068E368A16840F00105CB6030469960CA
:103A2000556000F037FB0834204603B0BDE8F08F46
:103A300021444B68304643F001034B6000F02AFB01
:103A40000834204603B0BDE8F08FBC68636823F0FB
:103A50000309A94504D3C5EB09030F2B00F391809B
:103A6000514B524A1968136805EB010A013304EB04
:103A7000090B00F061810AF5805A0AF10F0A2AF455
:103A80007F6A2AF00F0A30465146019201F016F87B
:103A9000B0F1FF3F8046019A00F00181834500F2BA
:103AA000FB80DFF814C1C345DCF800305344CCF888
:103AB000003000F04A8112683C4901321BBFCBEB59
:103AC000080B5B44C1F80080CCF8003018F0070305
:103AD00000F01481C3F10802C3F580539044083309
:103AE000C244CAF30B0ACAEB030A51463046CDF86A
:103AF00004C000F0E3FF431CDDF804C000F0358192
:103B0000C8EB0002524442F00102DCF80030BC4233
:103B10005344C7F80880CCF80030C8F80420DFF818
:103B200098A015D0B9F10F0F40F2EB806168A9F1B0
:103B30000C0222F0070201F0010142EA010E052009
:103B4000A1180F2AC4F804E04860886000F21181CF
:103B5000174ABC6811688B4288BF1360154A116808
:103B60008B4288BF1360626822F003029542C5EB66
:103B7000020301D80F2B04DC304600F08BFA00243E
:103B8000A6E645F0010243F0010325446260304699
:103B9000BD606B6000F07EFA0834204603B0BDE8DB
:103BA000F08F00BF90040020B80800209C0800207F
:103BB000B4080020B0080020BC080020BCF1140F9D
:103BC00061D9BCF1540F00F28F804FEA153C0CF123
:103BD0006E0C4FEA4C0197E64B0A042B58D9142B74
:103BE00000F2AD8003F15B02500007EB80008368B8
:103BF000DFF8B881834200F08A805A6822F003021D
:103C0000914202D29B689842F7D1D9687A68E16004
:103C1000A3608C60DC60B6E645F0010742F001016C
:103C20002544676030465D611D61C5F80CE0C5F84C
:103C300008E06960AA50083400F02CFA48E65A6897
:103C4000A1E609F1010919F0030F04F108047FF45A
:103C5000ADAE2DE004F108036469A34208BF0CF186
:103C6000020C3FF467AE23E6194448681C4654F83A
:103C7000082FDB6840F001054D603046D3609A6044
:103C800000F008FA24E60CF15B0C4FEA4C013BE62D
:103C90008A0938325000A8E7BC423FF402AFBC6842
:103CA000626822F0030261E7D8F8008098457AD173
:103CB0001CF0030FA8F108030CF1FF3CF4D17B6862
:103CC00023EA00037B60400098423FF6BEAE002826
:103CD0003FF4BBAE0342CC467FF464AE40000342E7
:103CE0000CF1040CFAD05DE6BCF5AA7F19D84FEAB6
:103CF000D53C0CF1770C4FEA4C0105E64FF48053AC
:103D0000EEE60123C8F80430444600222EE7921064
:103D100001209040D8F8042019460243C8F8042036
:103D200075E740F254539C451BD84FEA954C0CF173
:103D30007C0C4FEA4C01E7E50AF1100AA3E6542B8C
:103D40001FD80A0B6E3250004FE7CBF30B0100294E
:103D50007FF4B1AE0AEB0901BA6841F0010151608C
:103D6000F6E6FC214FF07E0CCEE501224FF0000A72
:103D7000CBE604F108013046FFF786FADAF80030A6
:103D8000E6E6B3F5AA7F03D8CA0B773250002CE7DA
:103D900040F25452934203D88A0C7C32500024E7FC
:103DA000FC207E2221E77B688DE700BF9004002085
:103DB000830770B4C9B240D0541E2AB303788B4233
:103DC00023D0431C04E0FCB1057814468D421CD07E
:103DD00013F0030F184604F1FF3203F10103F2D18F
:103DE000032C14D8651E54B303788B420DD0421CAB
:103DF000002302E004788C4207D0AB42104603F166
:103E0000010302F10102F5D1002070BC704741EAC4
:103E10000126034646EA06461A6818467240A2F191
:103E2000013525EA020212F0803F03F10403D9D1E3
:103E3000043C032C1846EFD8D4E71446D0E72046BC
:103E4000E3E700BF844641EA000313F0030349D1CE
:103E5000403A23D30B6803604B6843608B688360F0
:103E6000CB68C3600B6903614B6943618B698361F4
:103E7000CB69C3610B6A03624B6A43628B6A8362DC
:103E8000CB6AC3620B6B03634B6B43638B6B8363C4
:103E9000CB6BC36340304031403ADBD230320BD37E
:103EA0000B6803604B6843608B688360CB68C360BA
:103EB00010301031103AF3D20C3205D351F8043BD4
:103EC00040F8043B043AF9D2043208D0D2071CBFB0
:103ED00011F8013B00F8013B01D30B8803806046D9
:103EE000704700BF082A13D38B07B1D010F003032B
:103EF000AED0C3F10403D21ADB071CBF11F8013B9B
:103F000000F8013BA4D331F8023B20F8023B9FE7C5
:103F1000043AD9D3013A11F8013B00F8013BF9D238
:103F20000B7803704B7843708B78837060467047D2
:103F30008842F0B410D98C18A0420DD28518531EB7
:103F400042B121462A4611F8014D013B02F8014DCC
:103F50005C1CF8D1F0BC70470F2A44D940EA010339
:103F60009B0744D1A2F110073F0900EB071610365A
:103F70000C4603462568103343F8105C656810341E
:103F800043F80C5C54F8085C43F8085C54F8045C93
:103F900043F8045CB342EDD17B1C02F00F0C1B0113
:103FA000BCF1030F1944034423D90E461D46644651
:103FB00056F8047B043C032C45F8047BF8D8ACF19C
:103FC000040424F00304043402F0030223442144D3
:103FD000002ABFD01A4411F8014B03F8014B934259
:103FE000F9D1F0BC70470346002AF3D1B2E703468B
:103FF000F0E76246002AEDD1ACE700BFF0B48407D9
:1040000043D0541E002A3ED0CDB2034603E0621EC8
:10401000002C38D0144603F8015B9A07F7D1032C23
:104020002AD9CDB245EA05250F2C45EA054515D913
:10403000A4F110073F0903F1100606EB07161A4614
:10404000156055609560D5601032B242F8D104F029
:104050000F040137032C03EB07130DD91E4622462C
:10406000043A032A46F8045BFAD8221F22F003021E
:104070000432134404F003042CB1C9B21C4403F805
:10408000011BA342FBD1F0BC704714460346C6E7B0
:10409000704700BF704700BFC26C70B505460C4644
:1040A0004AB152F8240080B1016842F8241000227D
:1040B0000261C26070BD2122042100F0B1FDE864FC
:1040C00002460028EDD1002070BD012101FA04F65E
:1040D000721D2846920000F0A3FD0028F3D0446032
:1040E0008660E4E731B1C36C4A6853F82200086087
:1040F00043F82210704700BF2DE9F0430F6983B0E9
:104100008846814601F1140500242E680134B1B2BD
:10411000360C02FB013302FB06F699B206EB1343A1
:1041200001EB0341A74245F8041B4FEA1343ECDCC3
:104130004BB1D8F80820974209DA08EB870201371B
:104140005361C8F81070404603B0BDE8F083D8F85A
:104150000410484601310193FFF79EFFD8F8102064
:1041600008F10C010232044692000C30FFF76AFE9F
:10417000D9F84C20D8F80410019B52F82100C8F857
:10418000000042F82180A046D7E700BF030C1B04C3
:10419000B3B90004102310F07F4F04BF00020833AE
:1041A00010F0704F04BF0001043310F0404F04BF03
:1041B00080000233002807DB420003D42020704730
:1041C0000023E8E7581C704718467047036813F04F
:1041D000070207D0D90720D49A0720D49B08036090
:1041E0000220704799B209B91B0C102213F0FF0F7F
:1041F00004BF1B0A0832190704BF1B0904329907C0
:1042000004BF9B080232D90704D45B0801D12020E7
:1042100070470132036010467047002070475B080A
:1042200003600120704700BF10B50C460121FFF765
:1042300033FF01224461026110BD00BF2DE9F04F40
:104240000D69D2F8109085B04D450C46924604DABF
:104250002A4654464D468A469146A36805EB09070F
:1042600061689F42C8BF0131FFF716FF00F11406D5
:1042700006EB87084645019005D23346002043F8F7
:10428000040B9845FBD80AF1140C0CEB8909143483
:10429000CC45009404EB85055BD2CDF808800397EC
:1042A000C8465CF8043B9CB224B3009A33464FF0F6
:1042B000000900E00B4652F8047B19681FFA87FBDF
:1042C0001FFA81FA380C090C04FB0BAA04FB00103E
:1042D000D14400EB19401FFA89F949EA0047194611
:1042E00095424FEA104941F8047BE3D8C3F80490A3
:1042F0005CF8043C5FEA134924D0D6F800A0009B88
:10430000504631464FF0000B00E011461A88000C71
:1043100009FB02001FFA8AFA83444AEA0B400A4664
:1043200042F8040B53F8047B48684FEA174A84B2FA
:1043300009FB0A4A9D420AEB1B4A4FEA1A4BE4D892
:10434000C1F804A0E04506F10406AAD8DDF808800B
:10435000039F002F0ADD58F8043CA8F104081BB1A4
:1043600004E058F8043D0BB9013FFAD1019B18460F
:104370001F6105B0BDE8F08F12F003032DE9F04195
:10438000144607460E462CD1A4101CD0BD6C002D3F
:1043900030D04FF0000804E0641014D02868A8B1B1
:1043A0000546E307F8D5384631462A46FFF746FF6B
:1043B000AEB17268FB6C641053F82210316043F8A0
:1043C00022600646EAD13046BDE8F08138462946EB
:1043D0002A46FFF733FF2860C0F80080E0E7064672
:1043E000DAE70B4A013B52F823200023FFF784FE53
:1043F0000646C9E701213846FFF74EFE40F271211B
:1044000001220023416102610546B8640360C0E7F0
:10441000505F00082DE9F84F0B694FEA621A0AEB6A
:1044200003098B6809F101069E420F4693468046B8
:10443000496804DD5B009E4201F10101FADC40465F
:10444000FFF72AFEBAF1000F00F1140409DD002382
:104450001A4625460133534545F8042BFAD104EB9F
:1044600083043A6907F114031BF01F0B03EB820C62
:1044700021D0CBF1200A002200E02C461968254605
:1044800001FA0BF10A4345F8042B53F8042B63455A
:1044900022FA0AF2F1D362600AB109F10206D8F8F1
:1044A0004C307A68013E53F822100661396043F8B7
:1044B0002270BDE8F88F53F8042B9C4544F8042B78
:1044C000EDD953F8042B9C4544F8042BF3D8E6E7C8
:1044D00002690B6910B4D21A15D19B001430143143
:1044E0001944034401E0984211D253F8042D51F8C5
:1044F000044DA242F7D0944294BF01204FF0FF3008
:104500005DF8044B704710465DF8044B704700207F
:104510005DF8044B704700BF2DE9F0470D46044697
:10452000114628461646FFF7D3FF071E56D04FDB2D
:104530004FF0000969682046FFF7AEFD2F69326928
:1045400014351436C0F80C9000F1140305EB870CF9
:1045500006EB8208002155F8044B56F8042B1FFA8D
:1045600084FA8A441FFA82F9110CC1EB1441C9EB99
:104570000A0201EB224192B242EA0142B04543F8FD
:10458000042B4FEA21412C46E5D8AC45984615D975
:1045900054F8046BB2B21144360C06EB214689B2D2
:1045A00041EA0642A44543F8042B4FEA2641EFD8DE
:1045B000EB43634423F0030304334344043B22B935
:1045C00053F8042D013F002AFAD00761BDE8F087B7
:1045D0002B464FF0010935461E46ABE720463946CB
:1045E000FFF75AFD012347610361BDE8F08700BF73
:1045F0002DE9F043012183B01D46C3F30A5614464A
:104600000A9FFFF749FDC5F3130380460EB143F43B
:104610008013019324B302A840F8084D6846FFF7C1
:10462000D5FD002835D19DE80C00C8F81420002BDA
:104630000CBF01240224C8F81830C8F81040DEB9B5
:1046400008EB8403A0F2324038601869FFF79EFD42
:104650000B9BC0EB44101860404603B0BDE8F083EC
:1046600001A8FFF7B3FD019B01242030C8F81430E6
:10467000C8F81040002EE3D0A6F2334909EB00033E
:104680003B600B9BC0F135001860404603B0BDE8AD
:10469000F083019BC0F1200103FA01F1C340009AAD
:1046A00001930A43C8F81420C1E700BF2DE9F04F79
:1046B0000C4683B090468146002900F0BA80FFF78F
:1046C000E7FC08F10B0654F8043C162E23F0030512
:1046D000A4F108074BD810210E46B0454CD88D42A6
:1046E00051DADFF884B37819DBF808E0864500F08A
:1046F000A680426822F0010C8444DCF804C01CF05F
:10470000010F54D000221046DB076FD454F8083C48
:10471000C3EB070ADAF8043023F003032B44002824
:1047200062D0704500F0E98002EB030E8E455BDB42
:10473000C3688268D046D3609A6058F8081FDAF8D8
:104740000C302A1F242ACB60996000F22381132A9F
:1047500040F2B08023681B2ACAF808306368CAF8A0
:104760000C3000F22B8108340AF11003A3E026F08C
:104770000706002E3146B0DA0C230020C9F80030BD
:1047800003B0BDE8F08FA046AA1B0F2A03F0010377
:104790001AD82B437B603D446B6843F001036B6088
:1047A0004846FFF777FC404603B0BDE8F08F22F0A3
:1047B000030202EB050C8C45A6DBC2688168A046AB
:1047C000CA6065469160DFE7B919334342F00100E2
:1047D0007B600A4448605368083143F0010353602A
:1047E0004846FEF751FDDBE78B4233DA4146484647
:1047F000FFF742F880460028D2D054F8043CA0F1DC
:10480000080123F001023A44914200F0BC802A1FC3
:10481000242A6ED8132A42D803462246116819600A
:104820005168596092689A6021464846FEF72CFD0F
:10483000B6E7114603B0BDE8F04FFFF71DB8DEF84C
:10484000042006F1100C22F00302501960453DDAF5
:10485000704659E7D04658F8080FDAF80C102A1FAE
:10486000242AC160886000F2A080132A40F29B8055
:1048700021681B2ACAF808106168CAF80C1000F2F7
:10488000B28008340AF1100221681D461160616887
:1048900057465160A3689360DAF8043074E72368E0
:1048A0001B2A03606368436062D800F1080304F1C7
:1048B0000802B3E74346226875461A6062685746A5
:1048C0005A60A2689A60DAF804305DE7831B3744C7
:1048D00043F00103CBF808707B6054F8043C484671
:1048E00003F001031E4344F8046CFFF7D3FB20469A
:1048F0005AE72146FFF71CFB96E702EB030C06F193
:1049000010029445FFF670AF574657F8081FDAF8C3
:104910000C302A1F242ACB60996000F28680132A6B
:1049200077D923681B2ACAF808306368CAF80C30A4
:1049300000F2848008340AF1100322681A60626869
:104940005A60A2689A60C6EB0C020AEB060342F0BA
:104950000102CBF808305A60DAF80430484603F018
:1049600001031E43CAF80460FFF794FB38461BE7B7
:10497000A368242A8360E368C3602BD000F110038E
:1049800004F110024AE750F8042CA04622F003027A
:104990001544F9E62146404675465746FFF7C8FAE2
:1049A000DAF80430F0E642466EE7214640461D46FE
:1049B0005746FFF7BDFADAF80430E5E6A368242A83
:1049C000CAF81030E368CAF8143018D010340AF16D
:1049D000180370E7226900F118030261616904F1AC
:1049E000180241611AE7A168242ACAF81010E16888
:1049F000CAF814100FD010340AF1180244E72269E3
:104A00000AF12003CAF8182062691834CAF81C2079
:104A100051E73B4691E721690AF12002CAF81810D4
:104A200061691834CAF81C102EE721463846CDF8C3
:104A300004C0FFF77DFADDF804C084E7A368242AE8
:104A4000CAF81030E368CAF8143003D010340AF101
:104A5000180372E722690AF12003CAF81820626974
:104A60001834CAF81C2068E79004002031F0004395
:104A700010B408D00F4AA3F5801494420AD8042039
:104A80005DF8044B704700280CBF022003205DF83E
:104A9000044B7047B3F5801F01D20320F7E7064AA5
:104AA000934201D00020F2E7D0F1010038BF00208E
:104AB000EDE700BFFFFFDF7F0000F07F38B5074C58
:104AC0000023054608462360FBF750FC431C00D03A
:104AD00038BD2368002BFBD02B6038BDE4080020D4
:104AE00010B50C46B1F90E1000F0BEF9002803DB3A
:104AF000236D0344236510BDA38923F48053A38150
:104B000010BD00BF2DE9F0410C4689891D46CB053B
:104B10001646074606D5B4F90E100022022300F00F
:104B20008FF9A18921F48051A1813846B4F90E1082
:104B300032462B46BDE8F04100F05EB810B50C4699
:104B4000B1F90E1000F07CF9421CA38904D043F4A3
:104B500080532065A38110BD23F48053A38110BD31
:104B6000B1F90E1000F08CB84B6E2DE9F0479C04A3
:104B70000E46804691462AD59368126802F1080ACB
:104B80001BB31AE9A000BF0817D0043D002401E0C0
:104B9000A74210D0404655F8041F324600F0CAF82C
:104BA000431C04F10104F3D10023C9F80830C9F80B
:104BB0000430BDE8F087D9F80830A3EB8703C9F8C3
:104BC00008300AF1080A002BDBD10020ECE7FEF7E1
:104BD00027FC0023C9F80830C9F80430BDE8F08785
:104BE000936810B41BB15DF8044BFFF7BDBF1846C6
:104BF00053605DF8044B704770B5084C06460025BD
:104C0000084611461A462560FBF7E4FB431C00D01A
:104C100070BD2368002BFBD0336070BDE40800201A
:104C200010B502FB01F1FEF727FE044668B150F80B
:104C3000042C22F00302043A242A18D8132A06D896
:104C4000034600221A605A609A60204610BD002375
:104C50001B2A036043600FD9242A8360C36005BF09
:104C60000361436100F1100300F11803E9E700213B
:104C7000FFF7C4F9204610BD00F10803E1E700BFCB
:104C800038B5074C002305460846236001F0E4F8D8
:104C9000431C00D038BD2368002BFBD02B6038BDEF
:104CA000E408002070B50C46054631B110B1836BA5
:104CB000002B2FD0B4F90C300BB9002070BD284662
:104CC0002146FEF7F9F9E36A064633B12846E16961
:104CD00098470028B8BF4FF0FF36A3891B061CD4A5
:104CE000216B41B104F14003994202D02846FEF7FE
:104CF000CBFA00232363616C21B12846FEF7C4FA86
:104D000000236364FEF76EFA0023A381FEF76CFABA
:104D1000304670BDFEF7ECF9CCE728462169FEF776
:104D2000B3FADDE7024B01461868FFF7BBBF00BFCF
:104D3000300400202DE9F04193890F46990482B098
:104D40001446804606D4526E43F4005342F4005297
:104D5000A3816266FEF716FD01283ED03A46404622
:104D600001A904F15C0300F0E7F8421C06462DD0CF
:104D700000283AD09DF80410002509E02368197036
:104D80002368013323600135B5422ED201ABE95CC3
:104D9000A368013B002BA360F0DAA269934206DB13
:104DA000236819702368197801330A29EAD140462B
:104DB000224600F06DF8B0F1FF3358425841002808
:104DC000E1D04FF0FF3002B0BDE8F081A38943F09D
:104DD0004003A38102B0BDE8F0817B1EFE2BBDD84D
:104DE000F9B206468DF80410C6E7384602B0BDE8B1
:104DF000F08100BF38B5084C00230546084611462F
:104E0000236001F031F8431C00D038BD2368002B2B
:104E1000FBD02B6038BD00BFE408002038B5074C3C
:104E2000002305460846236001F026F8431C00D005
:104E300038BD2368002BFBD02B6038BDE408002070
:104E400070B5084C06460025084611461A462560EE
:104E500001F01AF8431C00D070BD2368002BFBD072
:104E6000336070BDE408002070B5084C064600258C
:104E7000084611461A46256001F00EF8431C00D082
:104E800070BD2368002BFBD0336070BDE4080020A8
:104E9000F8B50D461446074610B1836B002B48D079
:104EA000A289A06993B2A060180738D52669002EA0
:104EB00035D09904EDB215D5236862699E1B9642E0
:104EC0001CDA0136A268591C013AA26021601D70EB
:104ED0006369B3421AD0A389DB0701D50A2D15D027
:104EE0002846F8BD636E42F4005223F40053636613
:104EF0002368A28162699E1B9642E2DB3846214606
:104F0000FEF7DAF840B923680126DBE73846214688
:104F1000FEF7D2F80028E3D04FF0FF30F8BD384656
:104F20002146FDF70DF80028F6D1A289266993B233
:104F3000BFE7FEF7DDF8B3E72DE9F0411E4686B086
:104F40000C46054617460F4B91B1D3F80080FEF78B
:104F500015FC0096034621463A462846C047431CA6
:104F600003D100228A2332602B6006B0BDE8F081B5
:104F70001F68FEF703FC009603462246284603A955
:104F8000B847ECE7A008002021B1FF2A04D80A7036
:104F900001207047084670478A2303604FF0FF30B6
:104FA000704700BF81F0004102E000BF83F0004382
:104FB00030B54FEA41044FEA430594EA050F08BFB4
:104FC00090EA020F1FBF54EA000C55EA020C7FEA78
:104FD000645C7FEA655C00F0E2804FEA5454D4EBF5
:104FE0005555B8BF6D420CDD2C4480EA020281EABF
:104FF000030382EA000083EA010180EA020281EAF7
:105000000303362D88BF30BD11F0004F4FEA013148
:105010004FF4801C4CEA113102D0404261EB410157
:1050200013F0004F4FEA03334CEA133302D05242DD
:1050300063EB430394EA050F00F0A780A4F1010499
:10504000D5F1200E0DDB02FA0EFC22FA05F28018D3
:1050500041F1000103FA0EF2801843FA05F35941B9
:105060000EE0A5F120050EF1200E012A03FA0EFC38
:1050700028BF4CF0020C43FA05F3C01851EBE37162
:1050800001F0004507D54FF0000EDCF1000C7EEB7F
:1050900000006EEB0101B1F5801F1BD3B1F5001FBD
:1050A0000CD349085FEA30004FEA3C0C04F10104DC
:1050B0004FEA445212F5800F80F09A80BCF1004F05
:1050C00008BF5FEA500C50F1000041EB045141EA87
:1050D000050130BD5FEA4C0C404141EB010111F488
:1050E000801FA4F10104E9D191F0000F04BF014633
:1050F0000020B1FA81F308BF2033A3F10B03B3F111
:1051000020020CDA0C3208DD02F1140CC2F10C02A0
:1051100001FA0CF021FA02F10CE002F11402D8BFFE
:10512000C2F1200C01FA02F120FA0CFCDCBF41EACA
:105130000C019040E41AA2BF01EB0451294330BD99
:105140006FEA04041F3C1CDA0C340EDC04F1140476
:10515000C4F1200220FA04F001FA02F340EA03004D
:1051600021FA04F345EA030130BDC4F10C04C4F193
:10517000200220FA02F001FA04F340EA0300294673
:1051800030BD21FA04F0294630BD94F0000F83F4BD
:10519000801306BF81F480110134013D4EE77FEAA0
:1051A000645C18BF7FEA655C29D094EA050F08BFEC
:1051B00090EA020F05D054EA000C04BF19461046CD
:1051C00030BD91EA030F1EBF0021002030BD5FEA11
:1051D000545C05D14000494128BF41F0004130BD39
:1051E00014F580043CBF01F5801130BD01F000458D
:1051F00045F0FE4141F470014FF0000030BD7FEA00
:10520000645C1ABF194610467FEA655C1CBF0B46FA
:10521000024650EA013406BF52EA033591EA030F11
:1052200041F4002130BD00BF90F0000F04BF002109
:10523000704730B54FF4806404F132044FF000053C
:105240004FF0000150E700BF90F0000F04BF0021B5
:10525000704730B54FF4806404F1320410F000451B
:1052600048BF40424FF000013EE700BF42004FEA16
:10527000E2014FEA31014FEA02701FBF12F07F4393
:1052800093F07F4F81F06051704792F0000F14BF90
:1052900093F07F4F704730B54FF4607401F00045D4
:1052A00021F0004120E700BF50EA010208BF70472B
:1052B00030B54FF000050AE050EA010208BF704720
:1052C00030B511F0004502D5404261EB41014FF489
:1052D000806404F132045FEA915C3FF4DCAE4FF08D
:1052E00003025FEADC0C18BF03325FEADC0C18BF74
:1052F000033202EBDC02C2F1200300FA03FC20FAC5
:1053000002F001FA03FE40EA0E0021FA02F1144411
:10531000C1E600BF70B54FF0FF0C4CF4E06C1CEA26
:1053200011541DBF1CEA135594EA0C0F95EA0C0F9B
:1053300000F0DEF82C4481EA030621EA4C5123EA0E
:105340004C5350EA013518BF52EA033541F480113D
:1053500043F4801338D0A0FB02CE4FF00005E1FBF0
:1053600002E506F00042E0FB03E54FF00006E1FB3A
:1053700003569CF0000F18BF4EF0010EA4F1FF047D
:10538000B6F5007F64F5407404D25FEA4E0E6D41BD
:1053900046EB060642EAC62141EA55514FEAC520CE
:1053A00040EA5E504FEACE2EB4F1FD0C88BFBCF54A
:1053B000E06F1ED8BEF1004F08BF5FEA500E50F1FB
:1053C000000041EB045170BD06F0004646EA0101C1
:1053D00040EA020081EA0301B4EB5C04C2BFD4EBF3
:1053E0000C0541EA045170BD41F480114FF0000EEC
:1053F000013C00F3AB8014F1360FDEBF002001F05A
:10540000004170BDC4F10004203C35DA0C341BDCD3
:1054100004F11404C4F1200500FA05F320FA04F0A5
:1054200001FA05F240EA020001F0004221F00041D9
:1054300010EBD37021FA04F642EB06015EEA430E4C
:1054400008BF20EAD37070BDC4F10C04C4F120057C
:1054500000FA04F320FA05F001FA04F240EA02002F
:1054600001F0004110EBD37041F100015EEA430E00
:1054700008BF20EAD37070BDC4F1200500FA05F220
:105480004EEA020E20FA04F301FA05F243EA02039F
:1054900021FA04F001F0004121FA04F220EA0200AE
:1054A00000EBD3705EEA430E08BF20EAD37070BDF4
:1054B00094F0000F0FD101F00046400041EB0101D4
:1054C00011F4801F08BF013CF7D041EA060195F0B6
:1054D000000F18BF704703F00046520043EB030370
:1054E00013F4801F08BF013DF7D043EA060370475D
:1054F00094EA0C0F0CEA135518BF95EA0C0F0CD068
:1055000050EA410618BF52EA4306D1D181EA0301AD
:1055100001F000414FF0000070BD50EA410606BFA7
:105520001046194652EA430619D094EA0C0F02D1EC
:1055300050EA013613D195EA0C0F05D152EA033631
:105540001CBF104619460AD181EA030101F000414F
:1055500041F0FE4141F470014FF0000070BD41F098
:10556000FE4141F4780170BD70B54FF0FF0C4CF472
:10557000E06C1CEA11541DBF1CEA135594EA0C0F91
:1055800095EA0C0F00F0A7F8A4EB050481EA030EDE
:1055900052EA03354FEA013100F088804FEA0333C5
:1055A0004FF0805545EA131343EA12634FEA022293
:1055B00045EA111545EA10654FEA00260EF0004154
:1055C0009D4208BF964244F1FD0404F5407402D2A6
:1055D0005B084FEA3202B61A65EB03055B084FEA37
:1055E00032024FF480104FF4002CB6EB020E75EB34
:1055F000030E22BFB61A754640EA0C005B084FEA5C
:105600003202B6EB020E75EB030E22BFB61A7546D8
:1056100040EA5C005B084FEA3202B6EB020E75EB23
:10562000030E22BFB61A754640EA9C005B084FEA9B
:105630003202B6EB020E75EB030E22BFB61A7546A8
:1056400040EADC0055EA060E18D04FEA051545EA97
:1056500016754FEA06164FEAC30343EA52734FEA40
:10566000C2025FEA1C1CC0D111F4801F0BD141EAB9
:1056700000014FF000004FF0004CB6E711F4801F1E
:1056800004BF01430020B4F1FD0C88BFBCF5E06FFE
:105690003FF6AFAEB5EB030C04BFB6EB020C5FEA0E
:1056A000500C50F1000041EB045170BD0EF0004E63
:1056B0004EEA113114EB5C04C2BFD4EB0C0541EA95
:1056C000045170BD41F480114FF0000E013C90E692
:1056D00045EA060E8DE60CEA135594EA0C0F08BF56
:1056E00095EA0C0F3FF43BAF94EA0C0F0AD150EA55
:1056F00001347FF434AF95EA0C0F7FF425AF1046E8
:1057000019462CE795EA0C0F06D152EA03353FF40F
:10571000FDAE1046194622E750EA410618BF52EA8C
:1057200043067FF4C5AE50EA41047FF40DAF52EA60
:1057300043057FF4EBAE12E74FF0FF3C06E000BFFD
:105740004FF0010C02E000BF4FF0010C4DF804CD0A
:105750004FEA410C7FEA6C5C4FEA430C18BF7FEACA
:105760006C5C1BD001B050EA410C0CBF52EA430CF8
:1057700091EA030F02BF90EA020F0020704710F178
:10578000000F91EA030F58BF994208BF90422CBF07
:10579000D8176FEAE37040F0010070474FEA410C00
:1057A0007FEA6C5C02D150EA013C07D14FEA430C1E
:1057B0007FEA6C5CD6D152EA033CD3D05DF8040B8F
:1057C000704700BF8446104662468C4619466346C1
:1057D00000E000BF01B5FFF7B7FF002848BF10F198
:1057E000000F01BD4DF808EDFFF7F4FF0CBF0120DD
:1057F00000205DF808FB00BF4DF808EDFFF7EAFF59
:1058000034BF012000205DF808FB00BF4DF808ED13
:10581000FFF7E0FF94BF012000205DF808FB00BF08
:105820004DF808EDFFF7CEFF94BF012000205DF892
:1058300008FB00BF4DF808EDFFF7C4FF34BF01209F
:1058400000205DF808FB00BF4FEA410212F500128C
:1058500015D211D56FF47873B3EB625212D94FEAB7
:10586000C12343F0004343EA505311F0004F23FAA1
:1058700002F018BF404270474FF00000704750EAF6
:10588000013005D111F0004008BF6FF000407047B3
:105890004FF00000704700BF4BB942B9002908BF64
:1058A000002802D04FF0FF31084600F03BB882B02C
:1058B000EC462DE9005000F01DF8DDF804E002B0E0
:1058C0000CBC70472DE9704F089E14461D4680465B
:1058D000894600F029F804FB01F3A4FB00AB00FBB0
:1058E00005329344B8EB0A0869EB0B09C6E9008955
:1058F000BDE8708F2DE9704F089E14461D46804606
:10590000894600F061F900FB05F5A0FB04AB04FB40
:105910000154A344B8EB0A0869EB0B09C6E90089F6
:10592000BDE8708F704700BF00292DE9F00FC0F26D
:10593000A1800024002BC0F29880154606460F4631
:10594000002B3FD18A4258D9B2FA82F34BB1C3F14E
:10595000200201FA03F720FA02F29D4000FA03F652
:105960001743290CB7FBF1F201FB1277A8B200FB39
:1059700002F34FEA164C4CEA0747BB4209D97F199C
:1059800002F1FF3C80F00581BB4240F20281023A05
:105990002F44FF1AB7FBF1F301FB137100FB03F077
:1059A000B6B246EA0141884208D9491903F1FF37E6
:1059B00080F0F180884240F2EE80023B43EA0242EE
:1059C000002303E08B420AD900231A4610461946E9
:1059D00014B1404261EB4101BDE8F00F7047B3FAEA
:1059E00083F8B8F1000F40F088808B4202D38242E6
:1059F00000F2E28000230122E8E712B90123B3FBA1
:105A0000F2F5B5FA85F2002A3AD17F1B280C1FFA6D
:105A100085FC0123B7FBF0F100FB11770CFB01F2D1
:105A20004FEA164848EA0747BA4207D97F1901F1F9
:105A3000FF3802D2BA4200F2C4804146BF1AB7FB17
:105A4000F0F200FB12700CFB02FCB6B246EA00401A
:105A5000844507D9401902F1FF3702D2844500F28C
:105A6000AE803A4642EA0142B0E7E443524263EB79
:105A7000430362E7404261EB41014FF0FF3459E7D5
:105A80009540C2F1200927FA09F126FA09F9974051
:105A9000280CB1FBF0F800FB18111FFA85FC0CFB79
:105AA00008F349EA07094FEA194747EA01418B42DF
:105AB00006FA02F608D9491908F1FF327AD28B4268
:105AC00078D9A8F102082944C91AB1FBF0F300FB08
:105AD00013170CFB03F21FFA89F949EA0747BA4288
