:020000040800F2
:100000000050002035010008670100086901000860
:100010006B0100086D0100086F010008000000007E
:100020000000000000000000000000007101000856
:100030007301000800000000750100087701000846
:1000400065010008650100086501000865010008F8
:1000500065010008650100086501000865010008E8
:1000600065010008650100086501000865010008D8
:1000700065010008650100086501000865010008C8
:1000800065010008650100086501000865010008B8
:1000900065010008650100086501000865010008A8
:1000A0006501000865010008650100086501000898
:1000B0006501000865010008650100086501000888
:1000C0006501000865010008650100086501000878
:1000D0006501000865010008650100086501000868
:1000E00065010008650100086501000800000000C6
:1000F0000000000000000000000000000000000000
:1001000000000000000000005FF808F10023064A2C
:1001100006499818884204D2054959589950043321
:10012000F5E700F0B1BA00BF000000201400002085
:100130007C07000810B5094B094A934203D20022FC
:1001400043F8042BF8E700F05BFA00F017F80446D8
:1001500000F07AFA204600F089FA00BF140000206F
:100160005C000020FEE7FEE7FEE7FEE7FEE7FEE7B5
:08017000FEE7FEE7FEE7FEE7F3
:040178000D0100086D
:10017C00F8B5384C4FF40073012623803648182309
:10018C002146E370A67000F02BF94FF480632380B6
:10019C00314804232146E37000F022F92F490C2347
:1001AC0000254B812E484FF416530B608D81CD806A
:1001BC0000F0B6F92A48314600F006FA31463046CE
:1001CC0000F0A2F9274800F05BF8274800F058F837
:1001DC002649274A274F0A604FF440524A62264864
:1001EC0080224A610D618D61CD618D620D62CE60A0
:1001FC004F608D6000F0BCF81F48314600F0D6F817
:10020C0017484021324600F0EBF94FF4003000F073
:10021C00D9F80028F9D01848002100F0C7F8104888
:10022C004021002200F0DCF997F90030312B0ED17F
:10023C00002323801023E370104803230549A37087
:10024C0000F0CEF80D484FF4005100F017F90020E3
:10025C00F8BD00BF580000200008014044000020F9
:10026C0000380140440402405804024018000020A9
:10027C0004380140140000205800024000100140D6
:10028C0002684FF6FE731340036000230360436063
:10029C008360C3602A4B984222D02A4B984229D0C3
:1002AC00294B984230D0294B984237D0284B984252
:1002BC003ED0284B984206D153F8682C42F4700279
:1002CC0043F8682C7047244B984206D153F87C2C89
:1002DC0042F0706243F87C2C7047204B984206D158
:1002EC0053F8042C42F00F0243F8042C70471C4BBB
:1002FC00984206D153F8182C42F0F00243F8182C0F
:10030C007047184B984206D153F82C2C42F470626B
:10031C0043F82C2C7047144B984206D153F8402CC0
:10032C0042F4704243F8402C7047104B984205D170
:10033C0053F8542C42F4702243F8542C704700BFED
:10034C00080002401C000240300002404400024001
:10035C00580002406C000240800002400804024039
:10036C001C04024030040240440402405804024081
:10037C008A6810B50C6A036814430A6923F4FF43B6
:10038C0014434A6923F0700314438A691443CA69FD
:10039C0014434A6A14438A6A224313430360CB68AA
:1003AC0043600B6883604B68C36010BD19B1036870
:1003BC0043F0010303E002684FF6FE731340036041
:1003CC0070470000C3004CBF034B044B1B68034237
:1003DC000CBF0020012070470004024000000240C6
:1003EC00CB78F0B5DA0648BF8A78098803F00F0598
:1003FC0048BF154311F0FF0F1DD0046800220127E0
:10040C00974007EA0106BE4211D197004FF00F0C3E
:10041C000CFA07FC05FA07F724EA0C04282B44EA2B
:10042C00070401D1466102E0482B08BF0661013286
:10043C00082AE4D10460FF291FD94468002202F184
:10044C0008060127B74007EA0106BE4211D1970002
:10045C004FF00F0C0CFA07FC05FA07F724EA0C0412
:10046C00282B44EA070401D1466102E0482B08BF5F
:10047C0006610132082AE2D14460F0BD4161704747
:10048C001C4B10B55A6802F00C02042A01D0082A41
:10049C0001D0194A0EE05A685968C2F38342CC0362
:1004AC0002F1020202D55968890301D5134900E013
:1004BC0011494A4302605A681149C2F303128C5C19
:1004CC000268E24042605C68C4F302240C5D22FACC
:1004DC0004F484605C68C4F3C224095DCA40C26041
:1004EC005B680849C3F38133CB5CB2FBF3F2026166
:1004FC0010BD00BF0010024000127A0000093D0040
:10050C000400002000000020044B5A6909B110437C
:10051C0001E022EA00005861704700BF0010024061
:10052C00038ACA889BB223F44053134330B5038229
:10053C000D4682890989AB8892B20B43698922F4F2
:10054C00B0520B4322F00C0213439BB28381838A7B
:10055C00AA899BB223F4407387B013430446838269
:10056C0001A8FFF78DFF1749049A039B8C4208BF23
:10057C001346A289192112B25943002A2A684FF056
:10058C006403B4BF52009200B1FBF2F1B1FBF3F281
:10059C001201100903FB1011A08900B2002806DA21
:1005AC00C9003231B1FBF3F303F0070305E0090195
:1005BC003231B1FBF3F303F00F031A4392B22281F1
:1005CC0007B030BD00380140838919B19BB243F4A8
:1005DC00005303E023F400531B041B0C838170476E
:1005EC00838A9BB20AB1194301E023EA010181829B
:1005FC007047000070B50D4B0D4D0024ED1AAD1079
:10060C001E46AC4204D056F8242090470134F8E73B
:10061C00084B094D0024ED1AAD101E46AC4204D017
:10062C0056F8242090470134F8E770BD7801000893
:10063C007C0100087C0100087C01000838B5064DDF
:10064C00064C641BA41005EB840524B155F8043D3D
:10065C00013C9847F9E738BD7C0100087C01000893
:10066C00044A054BD16801F4E0610B43D360BFF33E
:10067C004F8FFEE700ED00E00400FA05384B82B026
:10068C001A6842F001021A605968364A0A405A60E8
:10069C001A6822F0847222F480321A601A6822F4EA
:1006AC0080221A605A6822F4FE025A604FF41F022C
:1006BC009A600022009201921A6842F480321A6009
:1006CC001A6802F400320192009A01320092019AE7
:1006DC001AB9009AB2F5A06FF2D11A6812F400326E
:1006EC0018BF01220192019A012A05D01E4B4FF02E
:1006FC0000629A6002B070471C4A116841F0100108
:10070C001160116821F003011160116841F00201C0
:10071C0011605A685A605A685A605A6842F480628A
:10072C005A605A6822F47C125A605A6842F4E812F1
:10073C005A601A6842F080721A601968084A890176
:10074C00FBD5516821F003015160516841F0020161
:10075C0051605A6802F00C02082AFAD1C6E700BFB1
:10076C00001002400000FFF800ED00E00020024005
:10077C000204060800000000010203040102030445
:04078C00060708094B
:0400000508000135B9
:00000001FF
