:020000040800F2
:10000000005000200D010008A1010008A90100080E
:10001000B1010008B9010008C1010008000000009A
:10002000000000000000000000000000C9010008FE
:10003000D101000800000000D9010008E10100081A
:100040009901000899010008990100089901000828
:100050009901000899010008990100089901000818
:100060009901000899010008990100089901000808
:1000700099010008990100089901000899010008F8
:1000800099010008990100089901000899010008E8
:1000900099010008990100089901000881020008EF
:1000A00099010008990100089901000899010008C8
:1000B00099010008990100089901000899010008B8
:1000C00099010008990100089901000899010008A8
:1000D0009901000899010008990100089901000898
:1000E000990100089901000899010008000000002A
:1000F0000000000000000000000000000000000000
:1001000000000000000000005FF808F180B584B036
:1001100000AF0D4BBB600D4B7B60BB683B6004E0E8
:100120003B681A1D3A6000221A607A683B689A425E
:10013000F6D800F0EBF900F059F8F86000F01CFA7E
:10014000F86800F037FA00BF00000020140000201B
:1001500080B584B000AF0D4BFB600D4BBB600D4B09
:100160007B60BB683B6007E03B681A1D3A60FA6839
:10017000111DF96012681A607A683B689A42F3D8D8
:1001800000F01EFA1037BD4680BD00BF34070008DE
:10019000000000200000002080B400AFFEE700BF98
:1001A00080B400AFFEE700BF80B400AFFEE700BF41
:1001B00080B400AFFEE700BF80B400AFFEE700BF31
:1001C00080B400AFFEE700BF80B400AFFEE700BF21
:1001D00080B400AFFEE700BF80B400AFFEE700BF11
:0801E00080B400AFFEE700BF90
:0401E80051010008B9
:1001EC0080B500AF0820012100F06CF91E4B4FF6D2
:1001FC00FF721A801C4B1022DA701B4B02229A7071
:10020C000420012100F05EF9184B4FF400721A60C3
:10021C00164B00221A71154B08225A71134B0122EE
:10022C009A71124800F062F80120012100F04AF99D
:10023C000D4B4FF400721A800B4B0422DA700A4BF0
:10024C0002229A700020092100F0FEF8084B1722B8
:10025C001A70074B00225A70054B00229A70044BFF
:10026C000122DA70BEE700BF080000200C0000205D
:10027C000000002080B582B000AF4FF4007000F099
:10028C00A3F80346002B28D0154B9B6803F400738E
:10029C00002B05D0134B1B685A1C124B1A6004E040
:1002AC00104B1B685A1E0F4B1A600E4B1B68642BAD
:1002BC000FD11020012100F005F94FF40053BB8041
:1002CC001023FB710223BB7107484FF4005100F05F
:1002DC00ADF84FF4007000F09BF80837BD4680BDB8
:1002EC0000080140040000200010014080B485B0DB
:1002FC0000AF78600023FB60324BFB607B689B791E
:10030C00002B4DD02F4B2F4A11687A681268D243BC
:10031C000A401A602B4B2B4A51687A681268D243F8
:10032C000A405A607B681B79FA681344FB60FB68CF
:10033C00FA6811687A6812680A431A60214B214ADC
:10034C0091687A681268D2430A409A601D4B1D4A24
:10035C00D1687A681268D2430A40DA607B685B79AC
:10036C00102B0ED1174B174A91687A6812680A4302
:10037C009A60144B134AD1687A6812680A43DA609F
:10038C001BE0104BFB607B685B79FA681344FB60E5
:10039C00FB68FA6811687A6812680A431A600CE004
:1003AC007B681B79FA681344FB60FB68FA68116878
:1003BC007A681268D2430A401A601437BD465DF859
:1003CC00047B70470004014080B485B000AF7860B6
:1003DC000023FB730023BB600C4B1A687B68134033
:1003EC00BB600A4B5A697B681340002B05D0BB6875
:1003FC00002B02D00123FB7301E00023FB73FB7B7A
:10040C0018461437BD465DF8047B70470004014064
:10041C0080B483B000AF7860034B7A685A610C37B4
:10042C00BD465DF8047B70470004014080B483B086
:10043C0000AF78600B467B807A887B685A610C37FA
:10044C00BD465DF8047B704790B484B000AF0246A3
:10045C000B46FA71BB710023FB60BB7903F00303FD
:10046C009B000F2202FA03F3FB60154BBA7992083A
:10047C00D2B21349B8798008C0B2023051F82000CA
:10048C00F968C9430140023243F822100C4BBA7987
:10049C009208D2B20A49B8798008C0B2023051F839
:1004AC002000FC79B97901F00301890004FA01F10B
:1004BC000143023243F822101037BD4690BC7047FE
:1004CC000000014080B483B000AF78600B46FB7035
:1004DC00FB78002B06D0094B084A91697A680A43CD
:1004EC009A6106E0054B054A91697A68D2430A4045
:1004FC009A610C37BD465DF8047B704700100240D2
:10050C0080B582B000AF154A154BD31A9B103B60D7
:10051C0000237B6007E0124B7A6853F8223098472F
:10052C007B6801337B607A683B689A42F3D30D4A4F
:10053C000D4BD31A9B103B6000237B6007E00A4BEA
:10054C007A6853F8223098477B6801337B607A686D
:10055C003B689A42F3D30837BD4680BDEC010008D6
:10056C00E8010008EC010008EC01000880B582B03D
:10057C0000AF0B4A0B4BD31A9B103B603B687B6064
:10058C0008E07B685A1E074B53F8223098477B686B
:10059C00013B7B607B68002BF3D10837BD4680BDE7
:1005AC00EC010008EC01000880B483B000AF786067
:1005BC00FEE700BF80B500AF154B154A126842F03C
:1005CC0001021A60124A124B5968124B0B405360CD
:1005DC000F4A0F4B1B6823F0847323F48033136092
:1005EC000B4B0B4A126822F480221A60084B084A03
:1005FC00526822F4FE025A60054B4FF41F029A60B7
:10060C0000F00CF8044B4FF000629A6080BD00BF04
:10061C00001002400000FFF800ED00E080B500AFD4
:10062C0000F002F880BD00BF80B483B000AF00239F
:10063C007B6000233B603A4B394A126842F48032AB
:10064C001A60374B1B6803F400333B607B68013343
:10065C007B603B68002B03D17B68B3F5A06FF0D1B6
:10066C002F4B1B6803F40033002B02D001233B609B
:10067C0001E000233B603B68012B4BD1294B294AFD
:10068C00126842F010021A60264B264A126822F0B9
:10069C0003021A60234B234A126842F002021A60CA
:1006AC001F4B1F4A52685A601D4B1D4A52685A60B4
:1006BC001B4B1B4A526842F480625A60184B184A12
:1006CC00526822F47C125A60154B154A526842F457
:1006DC00E8125A60124B124A126842F080721A6089
:1006EC0000BF0F4B1B6803F00073002BF9D00C4BB1
:1006FC000B4A526822F003025A60094B084A5268AE
:10070C0042F002025A6000BF054B5B6803F00C0319
:10071C00082BF9D10C37BD465DF8047B704700BF40
:08072C00001002400020024011
:040000050800010DE1
:00000001FF
