:020000040800F2
:100000000050002035010008670100086901000860
:100010006B0100086D0100086F010008000000007E
:100020000000000000000000000000007101000856
:100030007301000800000000750100087701000846
:1000400065010008650100086501000865010008F8
:1000500065010008650100086501000865010008E8
:1000600065010008650100086501000865010008D8
:1000700065010008650100086501000865010008C8
:1000800065010008650100086501000865010008B8
:10009000650100086501000865010008ED01000820
:1000A0006501000865010008650100086501000898
:1000B0006501000865010008650100086501000888
:1000C0006501000865010008650100086501000878
:1000D0006501000865010008650100086501000868
:1000E00065010008650100086501000800000000C6
:1000F0000000000000000000000000000000000000
:1001000000000000000000005FF808F10023064A2C
:1001100006499818884204D2054959589950043321
:10012000F5E700F043B900BF000000200000002008
:10013000A004000810B5094B094A934203D20022DB
:1001400043F8042BF8E700F0EDF800F017F8044648
:1001500000F00CF9204600F01BF900BF0000002061
:1001600014000020FEE7FEE7FEE7FEE7FEE7FEE7FD
:08017000FEE7FEE7FEE7FEE7F3
:040178000D0100086D
:10017C0080B5184C0820012100F0C2F84FF6FF732F
:10018C0001212380022710230420E370A77000F0C4
:10019C00B7F811480822002601254FF40078427167
:1001AC00C0F800800671857100F044F82846294695
:1001BC0000F0A6F8042330460921E370A4F800806F
:1001CC00A77000F087F8054B17221A705E709E70AE
:1001DC00DD70CEE7080000200C000020000000209D
:1001EC0008B54FF4007000F05FF8E0B10E4B9B685F
:1001FC0013F4007F0D4B1A6814BF013202F1FF3269
:10020C001A601B68642B08D11020012100F078F8CB
:10021C0007484FF4005100F05BF8BDE808404FF47C
:10022C00007000F04FB808BD000801400400002029
:10023C0000100140837930B50168027943B3194B42
:10024C00CC431D6802F1804225401D605D6802F5BB
:10025C0082322C405C6014682143116002689C68F7
:10026C00D1430C409C60DC682140D9604179102955
:10027C0006D1996811439960D9680A43DA6030BD98
:10028C0001F1804303F5823319680A431A6030BDCB
:10029C0002F1804303F582331A6822EA01011960E6
:1002AC0030BD00BF00040140054B1A685B69034078
:1002BC0004D010420CBF0020012070471846704734
:1002CC0000040140014B5861704700BF000401401D
:1002DC004161704701F003039B000F229A40984044
:1002EC0001F0FC0101F1804101F5803110B58C6801
:1002FC0024EA02028A608A6802438A6010BD000008
:10030C00044B9A6909B1104301E022EA000098619C
:10031C00704700BF0010024070B50D4B0D4D00240E
:10032C00ED1AAD101E46AC4204D056F8242090476E
:10033C000134F8E7084B094D0024ED1AAD101E46A8
:10034C00AC4204D056F8242090470134F8E770BD35
:10035C00780100087C0100087C0100087C01000881
:10036C0038B5064D064C641BA41005EB840524B16E
:10037C0055F8043D013C9847F9E738BD7C0100086D
:10038C007C010008044A054BD16801F4E0610B4381
:10039C00D360BFF34F8FFEE700ED00E00400FA05D9
:1003AC00384B82B01A6842F001021A605968364A1A
:1003BC000A405A601A6822F0847222F480321A6061
:1003CC001A6822F480221A605A6822F4FE025A60DB
:1003DC004FF41F029A600022009201921A6842F4B4
:1003EC0080321A601A6802F400320192009A0132CB
:1003FC000092019A1AB9009AB2F5A06FF2D11A685C
:10040C0012F4003218BF01220192019A012A05D080
:10041C001E4B4FF000629A6002B070471C4A116884
:10042C0041F010011160116821F003011160116895
:10043C0041F0020111605A685A605A685A605A6851
:10044C0042F480625A605A6822F47C125A605A68EC
:10045C0042F4E8125A601A6842F080721A60196805
:10046C00084A8901FBD5516821F00301516051689C
:10047C0041F0020151605A6802F00C02082AFAD1CC
:10048C00C6E700BF001002400000FFF800ED00E0DE
:04049C0000200240FA
:0400000508000135B9
:00000001FF
