:020000040800F2
:10000000005000200D010008A1010008A90100080E
:10001000B1010008B9010008C1010008000000009A
:10002000000000000000000000000000C9010008FE
:10003000D101000800000000D90100083D050008BA
:100040009901000899010008990100089901000828
:100050009901000899010008990100089901000818
:100060009901000899010008990100089901000808
:1000700099010008990100089901000899010008F8
:1000800099010008990100089901000899010008E8
:1000900099010008990100089901000899010008D8
:1000A00099010008990100089901000899010008C8
:1000B00099010008990100089901000899010008B8
:1000C00099010008990100089901000899010008A8
:1000D0009901000899010008990100089901000898
:1000E000990100089901000899010008000000002A
:1000F0000000000000000000000000000000000000
:1001000000000000000000005FF808F180B584B036
:1001100000AF0D4BBB600D4B7B60BB683B6004E0E8
:100120003B681A1D3A6000221A607A683B689A425E
:10013000F6D800F0E7FD00F05BF8F86000F018FE7C
:10014000F86800F033FE00BF1400002070000020AB
:1001500080B584B000AF0D4BFB600D4BBB600D4B09
:100160007B60BB683B6007E03B681A1D3A60FA6839
:10017000111DF96012681A607A683B689A42F3D8D8
:1001800000F01AFE1037BD4680BD00BF10170008F2
:10019000000000201400002080B400AFFEE700BF84
:1001A00080B400AFFEE700BF80B400AFFEE700BF41
:1001B00080B400AFFEE700BF80B400AFFEE700BF31
:1001C00080B400AFFEE700BF80B400AFFEE700BF21
:1001D00080B400AFFEE700BF80B400AFFEE700BF11
:0801E00080B400AFFEE700BF90
:0401E80051010008B9
:1001F00080B500AF4FF48040012100F0CFFB042018
:10020000012100F0CBFB0120012100F0C7FB744B62
:100210004FF400721A80724B1822DA70704B012270
:100220009A7070486E4900F02DFA6D4B4FF4806261
:100230001A806B4B0422DA706A48694900F022FA8E
:10024000694B0C225A81684B4FF416521A60664B68
:1002500000229A81644B0022DA80634B00221A81CB
:10026000614B00229A8061485F4900F04DFC5F4875
:10027000012100F003FD5E4B00221A6015E05B488F
:10028000594900F041FC5948012100F0F7FC00F009
:10029000BBF8574B1B68574A1268D1B2564AD15423
:1002A000534B1B685A1C524B1A60514B1B68022B54
:1002B000E5DD514B9B785BB2313B072B00F2878029
:1002C00001A252F823F000BFE90200082103000850
:1002D000CF0300085B030008CF030008CF0300082A
:1002E000CF03000895030008444B00221A80424BBC
:1002F0005B785BB2184600F06BFF02460B46104677
:10030000194635A3D3E9002301F0F2F802460B4663
:100310001046194601F0D4F90246394B1A6056E0EE
:10032000364B08221A80344B5B785BB25B00184670
:1003300000F04EFF02460B461046194626A3D3E9AD
:10034000002301F0D5F802460B461046194601F08D
:10035000B7F902462A4B1A6039E0284B10221A805E
:10036000254B5B785BB29B00184600F031FF0246DC
:100370000B461046194618A3D3E9002301F0B8F83C
:1003800002460B461046194601F09AF902461C4BEC
:100390001A601CE0194B18221A80174B5B785BB26D
:1003A000DB00184600F014FF02460B4610461946C3
:1003B00009A3D3E9002301F09BF802460B4610463F
:1003C000194601F07DF902460D4B1A6000BF00F09E
:1003D0007BF80023184680BD1F85EB51B81E1940DD
:1003E0006C0000200008014054000020003801404B
:1003F00064000020180000204C00002014000020A1
:1004000050000020AFF3008080B500AF29484021A4
:10041000012200F053FC0120012100F0A1FA264B3B
:10042000264A1A60244B00221A61234B00229A614B
:10043000214B0022DA61204B00229A621E4B0022DF
:100440001A621D4B0122DA601B4B4FF440525A6274
:100450001B4A194B5A60184B80225A61164B0022D6
:100460009A601848144900F06FF81648012100F00E
:10047000A9F800BF4FF4003000F0C0F80346002B8D
:10048000F8D04FF4003000F0E3F80E48002100F0FF
:1004900099F808484021002200F010FC054800218E
:1004A00000F0ECFB034800F0D3FA054B1B6818463C
:1004B00080BD00BF0038014020000020043801400A
:1004C000180000205800024080B582B000AF08201C
:1004D000012100F063FA3823BB801023FB71032352
:1004E000BB713B1D0948194600F0CCF8084BDB688E
:1004F000074B0022DA60064B054AD168054A12888C
:100500000A43DA600837BD4680BD00BF00100140D5
:10051000000C01401400002080B400AF064B1B68A3
:10052000002B04D0044B1B685A1E034B1A60BD46B7
:100530005DF8047B704700BF1C00002080B500AF51
:10054000FFF7EAFF80BD00BF80B485B000AF7860E0
:1005500039600023FB607B681B68FB60FB6823F449
:10056000FF4323F07003FB603B689A683B681B6A9B
:100570001A433B681B691A433B685B691A433B6833
:100580009B691A433B68DB691A433B685B6A1A4301
:100590003B689B6A1343FA681343FB607B68FA6805
:1005A0001A603B68DA687B685A603B681A687B6847
:1005B0009A603B685A687B68DA601437BD465DF81C
:1005C000047B704780B483B000AF78600B46FB704B
:1005D000FB78002B06D07B681B6843F001027B6828
:1005E0001A6006E07B681A684FF6FE7313407A685B
:1005F00013600C37BD465DF8047B704780B485B04E
:1006000000AF78600023FB730023BB607B6803F0BE
:100610008053002B03D00C4B1B68BB6002E00B4BDC
:100620001B68BB60BA687B681340002B02D00123B3
:10063000FB7301E00023FB73FB7B18461437BD46B8
:100640005DF8047B704700BF0004024000000240D8
:1006500080B483B000AF78607B6803F08053002BD8
:1006600003D0064B7A685A6002E0054B7A685A60FC
:100670000C37BD465DF8047B704700BF00040240A4
:100680000000024080B489B000AF78603960002378
:10069000FB6100233B610023BB610023FB6000235F
:1006A0007B610023BB603B68DB7803F00F03FB61D9
:1006B0003B68DB7803F01003002B04D03B689B7889
:1006C000FA691343FB613B681B88DBB2002B44D003
:1006D0007B681B687B610023BB6138E0BB6901223A
:1006E00002FA03F3FB603B681B881A46FB68134061
:1006F0003B613A69FB689A4226D1BB699B00FB606B
:10070000FB680F2202FA03F3BB60BB68DB437A6924
:1007100013407B61FB68FA6902FA03F37A691343B9
:100720007B613B68DB78282B05D1BB6901229A40AD
:100730007B685A6108E03B68DB78482B04D1BB69D1
:1007400001229A407B681A61BB690133BB61BB69B6
:10075000072BC3D97B687A691A603B681B88FF2B1B
:1007600046D97B685B687B610023BB613AE0BB696B
:100770000833012202FA03F3FB603B681B881A4628
:10078000FB6813403B613A69FB689A4227D1BB6919
:100790009B00FB60FB680F2202FA03F3BB60BB689F
:1007A000DB437A6913407B61FB68FA6902FA03F361
:1007B0007A6913437B613B68DB78282B05D1BB69E1
:1007C000083301229A407B685A613B68DB78482BEA
:1007D00005D1BB69083301229A407B681A61BB6965
:1007E0000133BB61BB69072BC1D97B687A695A6049
:1007F0002437BD465DF8047B704700BF80B487B0E6
:1008000000AF786000237B6100233B610023FB6025
:100810000023BB604D4B5B6803F00C037B617B697D
:10082000042B07D0082B09D0002B34D17B68484A11
:100830001A6034E07B68464A1A6030E0434B5B68DC
:1008400003F470133B61414B5B6803F48033FB603E
:100850003B699B0C02333B61FB68002B06D13B6973
:100860003C4A02FB03F27B681A6013E0374B5B687B
:1008700003F40033002B06D03B69364A02FB03F237
:100880007B681A6006E03B69314A02FB03F27B6831
:100890001A6004E003E07B682D4A1A6000BF2B4B0E
:1008A0005B6803F0F0037B617B691B097B612A4A6B
:1008B0007B6913441B78DBB2BB607B681A68BB683A
:1008C000DA407B685A60214B5B6803F4E0637B612C
:1008D0007B691B0A7B61204A7B6913441B78DBB26E
:1008E000BB607B685A68BB68DA407B689A60174BCC
:1008F0005B6803F460537B617B69DB0A7B61164AAA
:100900007B6913441B78DBB2BB607B685A68BB68A9
:10091000DA407B68DA600D4B5B6803F440437B612F
:100920007B699B0B7B610D4A7B6913441B78DBB2AF
:10093000BB607B68DA68BB68B2FBF3F27B681A6164
:100940001C37BD465DF8047B704700BF00100240B5
:1009500000127A0000093D00000000201000002075
:1009600080B483B000AF78600B46FB70FB78002B3F
:1009700006D0094B084A51697A680A435A6106E071
:10098000054B054A51697A68D2430A405A610C37CF
:10099000BD465DF8047B70470010024080B483B010
:1009A00000AF78600B46FB70FB78002B06D0094B3C
:1009B000084A91697A680A439A6106E0054B054A3C
:1009C00091697A68D2430A409A610C37BD465DF856
:1009D000047B70470010024080B483B000AF7860A1
:1009E0000B46FB70FB78002B06D0094B084AD168F8
:1009F0007A680A43DA6006E0054B054AD1687A68EE
:100A0000D2430A40DA600C37BD465DF8047B70477C
:100A10000010024080B483B000AF78600B46FB70DA
:100A2000FB78002B06D0094B084A11697A680A4303
:100A30001A6106E0054B054A11697A68D2430A40FB
:100A40001A610C37BD465DF8047B70470010024008
:100A500080B582B000AF78607A68264B9A420AD19E
:100A60004FF480400121FFF7B7FF4FF48040002191
:100A7000FFF7B2FF3AE07A681F4B9A420AD14FF46F
:100A800000300121FFF7C6FF4FF400300021FFF7CF
:100A9000C1FF2BE07A68194B9A420AD14FF48020AB
:100AA0000121FFF7B7FF4FF480200021FFF7B2FFCD
:100AB0001CE07A68124B9A420AD14FF400200121BF
:100AC000FFF7A8FF4FF400200021FFF7A3FF0DE080
:100AD0007A680C4B9A4209D14FF480100121FFF73C
:100AE00099FF4FF480100021FFF794FF0837BD46AF
:100AF00080BD00BF00380140004400400048004075
:100B0000004C00400050004080B58CB000AF7860D1
:100B100039600023FB620023BB6200237B62002359
:100B20003B620023FB617B68FB617B681B8A9BB295
:100B3000FB62FA6A4CF6FF731340FB623B68DB888A
:100B4000FA6A1343FB62FB6A9AB27B681A827B687B
:100B50009B899BB2FB62FA6A4EF6F3131340FB6269
:100B60003B689A883B681B8913439AB23B685B8950
:100B700013439BB2FA6A1343FB62FB6A9AB27B6827
:100B80009A817B689B8A9BB2FB62FA6A4FF6FF43AD
:100B90001340FB623B689B89FA6A1343FB62FB6A62
:100BA0009AB27B689A8207F108031846FFF726FE7F
:100BB000FA69304B9A4202D17B69BB6201E03B6922
:100BC000BB627B689B899BB29BB21BB2002B0CDA89
:100BD000BA6A13469B0013449A001A443B681B6888
:100BE0005B00B2FBF3F37B620BE0BA6A13469B0037
:100BF00013449A001A443B681B689B00B2FBF3F352
:100C00007B627A6A1C4BA3FB02135B091B01FB622C
:100C1000FB6A1B09642202FB03F37A6AD31A3B6264
:100C20007B689B899BB29BB21BB2002B0DDA3B6A9F
:100C3000DB0003F13202104BA3FB02135B0903F04C
:100C40000703FA6A1343FB620CE03B6A1B0103F1E2
:100C50003202094BA3FB02135B0903F00F03FA6A8C
:100C60001343FB62FB6A9AB27B681A813037BD4638
:100C700080BD00BF003801401F85EB5180B483B0B8
:100C800000AF78600B46FB70FB78002B08D07B68C8
:100C90009B899BB243F400539AB27B689A8107E028
:100CA0007B689B899BB223F400539AB27B689A813C
:100CB0000C37BD465DF8047B704700BF80B483B03D
:100CC00000AF786013460A467A807B707B78002BF1
:100CD00008D07B689B8A9AB27B8813439AB27B6860
:100CE0009A8209E07B689B8A9AB27B88DB439BB23D
:100CF00013409AB27B689A820C37BD465DF8047B3C
:100D0000704700BF80B582B000AF154A154BD31AAB
:100D10009B103B6000237B6007E0124B7A6853F81E
:100D2000223098477B6801337B607A683B689A423F
:100D3000F3D30D4A0D4BD31A9B103B6000237B600D
:100D400007E00A4B7A6853F8223098477B680133F2
:100D50007B607A683B689A42F3D30837BD4680BD12
:100D6000EC010008E8010008EC010008EC010008B3
:100D700080B582B000AF0B4A0B4BD31A9B103B607F
:100D80003B687B6008E07B685A1E074B53F82230B3
:100D900098477B68013B7B607B68002BF3D1083769
:100DA000BD4680BDEC010008EC01000880B483B0B2
:100DB00000AF7860FEE700BF80B500AF154B154A65
:100DC000126842F001021A60124A124B5968124B23
:100DD0000B4053600F4A0F4B1B6823F0847323F4BE
:100DE000803313600B4B0B4A126822F480221A6086
:100DF000084B084A526822F4FE025A60054B4FF431
:100E00001F029A6000F00CF8044B4FF000629A60E9
:100E100080BD00BF001002400000FFF800ED00E0C0
:100E200080B500AF00F002F880BD00BF80B483B091
:100E300000AF00237B6000233B603A4B394A1268C5
:100E400042F480321A60374B1B6803F400333B6076
:100E50007B6801337B603B68002B03D17B68B3F573
:100E6000A06FF0D12F4B1B6803F40033002B02D08E
:100E700001233B6001E000233B603B68012B4BD129
:100E8000294B294A126842F010021A60264B264A62
:100E9000126822F003021A60234B234A126842F0C0
:100EA00002021A601F4B1F4A52685A601D4B1D4AAE
:100EB00052685A601B4B1B4A526842F480625A6067
:100EC000184B184A526822F47C125A60154B154A86
:100ED000526842F4E8125A60124B124A126842F009
:100EE00080721A6000BF0F4B1B6803F00073002B69
:100EF000F9D00C4B0B4A526822F003025A60094B9E
:100F0000084A526842F002025A6000BF054B5B6813
:100F100003F00C03082BF9D10C37BD465DF8047BB8
:100F2000704700BF001002400020024081F00041E5
:100F300002E000BF83F0004330B54FEA41044FEABE
:100F4000430594EA050F08BF90EA020F1FBF54EA59
:100F5000000C55EA020C7FEA645C7FEA655C00F0F5
:100F6000E2804FEA5454D4EB5555B8BF6D420CDDC6
:100F70002C4480EA020281EA030382EA000083EA49
:100F8000010180EA020281EA0303362D88BF30BDE9
:100F900011F0004F4FEA01314FF4801C4CEA11313F
:100FA00002D0404261EB410113F0004F4FEA03339E
:100FB0004CEA133302D0524263EB430394EA050F29
:100FC00000F0A780A4F10104D5F1200E0DDB02FA98
:100FD0000EFC22FA05F2801841F1000103FA0EF22C
:100FE000801843FA05F359410EE0A5F120050EF1F2
:100FF000200E012A03FA0EFC28BF4CF0020C43FA23
:1010000005F3C01851EBE37101F0004507D54FF02F
:10101000000EDCF1000C7EEB00006EEB0101B1F57F
:10102000801F1BD3B1F5001F0CD349085FEA3000C5
:101030004FEA3C0C04F101044FEA445212F5800FD0
:1010400080F09A80BCF1004F08BF5FEA500C50F16D
:10105000000041EB045141EA050130BD5FEA4C0C50
:10106000404141EB010111F4801FA4F10104E9D1D9
:1010700091F0000F04BF01460020B1FA81F308BFD0
:101080002033A3F10B03B3F120020CDA0C3208DD9C
:1010900002F1140CC2F10C0201FA0CF021FA02F177
:1010A0000CE002F11402D8BFC2F1200C01FA02F1E7
:1010B00020FA0CFCDCBF41EA0C019040E41AA2BF0C
:1010C00001EB0451294330BD6FEA04041F3C1CDAD4
:1010D0000C340EDC04F11404C4F1200220FA04F0F4
:1010E00001FA02F340EA030021FA04F345EA03019E
:1010F00030BDC4F10C04C4F1200220FA02F001FA60
:1011000004F340EA0300294630BD21FA04F02946E1
:1011100030BD94F0000F83F4801306BF81F480117A
:101120000134013D4EE77FEA645C18BF7FEA655CED
:1011300029D094EA050F08BF90EA020F05D054EABF
:10114000000C04BF1946104630BD91EA030F1EBFC4
:101150000021002030BD5FEA545C05D140004941C8
:1011600028BF41F0004130BD14F580043CBF01F5BB
:10117000801130BD01F0004545F0FE4141F47001A1
:101180004FF0000030BD7FEA645C1ABF194610467C
:101190007FEA655C1CBF0B46024650EA013406BF7D
:1011A00052EA033591EA030F41F4002130BD00BF3C
:1011B00090F0000F04BF0021704730B54FF48064F9
:1011C00004F132044FF000054FF0000150E700BF7A
:1011D00090F0000F04BF0021704730B54FF48064D9
:1011E00004F1320410F0004548BF40424FF00001C6
:1011F0003EE700BF42004FEAE2014FEA31014FEA09
:1012000002701FBF12F07F4393F07F4F81F0605157
:10121000704792F0000F14BF93F07F4F704730B5C6
:101220004FF4607401F0004521F0004120E700BF59
:1012300050EA010208BF704730B54FF000050AE0E0
:1012400050EA010208BF704730B511F0004502D5E1
:10125000404261EB41014FF4806404F132045FEAE3
:10126000915C3FF4DCAE4FF003025FEADC0C18BF88
:1012700003325FEADC0C18BF033202EBDC02C2F17E
:10128000200300FA03FC20FA02F001FA03FE40EA10
:101290000E0021FA02F11444C1E600BF70B54FF010
:1012A000FF0C4CF4E06C1CEA11541DBF1CEA1355F2
:1012B00094EA0C0F95EA0C0F00F0DEF82C4481EA5A
:1012C000030621EA4C5123EA4C5350EA013518BF7A
:1012D00052EA033541F4801143F4801338D0A0FB67
:1012E00002CE4FF00005E1FB02E506F00042E0FB14
:1012F00003E54FF00006E1FB03569CF0000F18BF1A
:101300004EF0010EA4F1FF04B6F5007F64F54074C1
:1013100004D25FEA4E0E6D4146EB060642EAC62154
:1013200041EA55514FEAC52040EA5E504FEACE2EC1
:10133000B4F1FD0C88BFBCF5E06F1ED8BEF1004FC4
:1013400008BF5FEA500E50F1000041EB045170BD40
:1013500006F0004646EA010140EA020081EA030184
:10136000B4EB5C04C2BFD4EB0C0541EA045170BD80
:1013700041F480114FF0000E013C00F3AB8014F1FA
:10138000360FDEBF002001F0004170BDC4F1000443
:10139000203C35DA0C341BDC04F11404C4F12005C4
:1013A00000FA05F320FA04F001FA05F240EA02001F
:1013B00001F0004221F0004110EBD37021FA04F655
:1013C00042EB06015EEA430E08BF20EAD37070BD0F
:1013D000C4F10C04C4F1200500FA04F320FA05F06E
:1013E00001FA04F240EA020001F0004110EBD37070
:1013F00041F100015EEA430E08BF20EAD37070BDE0
:10140000C4F1200500FA05F24EEA020E20FA04F3B8
:1014100001FA05F243EA020321FA04F001F0004167
:1014200021FA04F220EA020000EBD3705EEA430ED8
:1014300008BF20EAD37070BD94F0000F0FD101F007
:101440000046400041EB010111F4801F08BF013C40
:10145000F7D041EA060195F0000F18BF704703F07E
:101460000046520043EB030313F4801F08BF013D05
:10147000F7D043EA0603704794EA0C0F0CEA1355C1
:1014800018BF95EA0C0F0CD050EA410618BF52EA7B
:101490004306D1D181EA030101F000414FF0000081
:1014A00070BD50EA410606BF1046194652EA43068F
:1014B00019D094EA0C0F02D150EA013613D195EA03
:1014C0000C0F05D152EA03361CBF104619460AD14B
:1014D00081EA030101F0004141F0FE4141F4700155
:1014E0004FF0000070BD41F0FE4141F4780170BD45
:1014F00070B54FF0FF0C4CF4E06C1CEA11541DBFAA
:101500001CEA135594EA0C0F95EA0C0F00F0A7F8AB
:10151000A4EB050481EA030E52EA03354FEA0131D8
:1015200000F088804FEA03334FF0805545EA1313EB
:1015300043EA12634FEA022245EA111545EA1065B3
:101540004FEA00260EF000419D4208BF964244F14A
:10155000FD0404F5407402D25B084FEA3202B61A69
:1015600065EB03055B084FEA32024FF480104FF43D
:10157000002CB6EB020E75EB030E22BFB61A7546B1
:1015800040EA0C005B084FEA3202B6EB020E75EB44
:10159000030E22BFB61A754640EA5C005B084FEAAC
:1015A0003202B6EB020E75EB030E22BFB61A754679
:1015B00040EA9C005B084FEA3202B6EB020E75EB84
:1015C000030E22BFB61A754640EADC0055EA060E45
:1015D00018D04FEA051545EA16754FEA06164FEA88
:1015E000C30343EA52734FEAC2025FEA1C1CC0D134
:1015F00011F4801F0BD141EA00014FF000004FF0C1
:10160000004CB6E711F4801F04BF01430020B4F181
:10161000FD0C88BFBCF5E06F3FF6AFAEB5EB030C39
:1016200004BFB6EB020C5FEA500C50F1000041EB36
:10163000045170BD0EF0004E4EEA113114EB5C0403
:10164000C2BFD4EB0C0541EA045170BD41F48011D6
:101650004FF0000E013C90E645EA060E8DE60CEADE
:10166000135594EA0C0F08BF95EA0C0F3FF43BAFFB
:1016700094EA0C0F0AD150EA01347FF434AF95EAB2
:101680000C0F7FF425AF104619462CE795EA0C0F96
:1016900006D152EA03353FF4FDAE1046194622E763
:1016A00050EA410618BF52EA43067FF4C5AE50EA3D
:1016B00041047FF40DAF52EA43057FF4EBAE12E72D
:1016C0004FEA410212F5001215D211D56FF478736A
:1016D000B3EB625212D94FEAC12343F0004343EA0D
:1016E000505311F0004F23FA02F018BF40427047E8
:1016F0004FF00000704750EA013005D111F0004072
:1017000008BF6FF0004070474FF00000704700BF07
:101710000000000001020304010203040607080997
:0417200002040608B1
:040000050800010DE1
:00000001FF
