:020000040800F2
:10000000005000200D010008A1010008A90100080E
:10001000B1010008B9010008C1010008000000009A
:10002000000000000000000000000000C9010008FE
:10003000D101000800000000D9010008E10100081A
:100040009901000899010008990100089901000828
:100050009901000899010008990100089901000818
:100060009901000899010008990100089901000808
:1000700099010008990100089901000899010008F8
:1000800099010008990100089901000899010008E8
:1000900099010008990100089901000899010008D8
:1000A00099010008990100089901000899010008C8
:1000B00099010008990100089901000899010008B8
:1000C00099010008990100089901000899010008A8
:1000D0009901000899010008990100089901000898
:1000E000990100089901000899010008000000002A
:1000F0000000000000000000000000000000000000
:1001000000000000000000005FF808F180B584B036
:1001100000AF0D4BBB600D4B7B60BB683B6004E0E8
:100120003B681A1D3A6000221A607A683B689A425E
:10013000F6D800F01BFD00F059F8F86000F04CFD17
:10014000F86800F067FD00BF140000206000002088
:1001500080B584B000AF0D4BFB600D4BBB600D4B09
:100160007B60BB683B6007E03B681A1D3A60FA6839
:10017000111DF96012681A607A683B689A42F3D8D8
:1001800000F04EFD1037BD4680BD00BF940D000845
:10019000000000201400002080B400AFFEE700BF84
:1001A00080B400AFFEE700BF80B400AFFEE700BF41
:1001B00080B400AFFEE700BF80B400AFFEE700BF31
:1001C00080B400AFFEE700BF80B400AFFEE700BF21
:1001D00080B400AFFEE700BF80B400AFFEE700BF11
:0801E00080B400AFFEE700BF90
:0401E80051010008B9
:1001EC0080B582B000AF4FF48040012100F004FBD9
:1001FC000420012100F000FB0120012100F0FCFA99
:10020C002B4B4FF400721A80294B1822DA70284BB2
:10021C0001229A702748264900F054F9244B4FF4D8
:10022C0080621A80224B0422DA702248204900F0A6
:10023C0049F9214B0C225A811F4B4FF416521A606C
:10024C001D4B00229A811C4B0022DA801A4B002293
:10025C001A81194B00229A801848174900F082FB2A
:10026C001648012100F038FC00F02EF8144B1B68E6
:10027C00FB7197F90730312B14D11020012100F0BC
:10028C00BBFA4FF400533B801023FB700323BB706D
:10029C003B460C48194600F015F90A484FF400513A
:1002AC0000F0CCF9002318460837BD4680BD00BFCE
:1002BC005C00002000080140440000200038014090
:1002CC00140000200010014080B500AF29484021E7
:1002DC00012200F021FC0120012100F06FFA264BD5
:1002EC00264A1A60244B00221A61234B00229A6181
:1002FC00214B0022DA61204B00229A621E4B002215
:10030C001A621D4B0122DA601B4B4FF440525A62A9
:10031C001B4A194B5A60184B80225A61164B00220B
:10032C009A601848144900F02FF81648012100F083
:10033C0069F800BF4FF4003000F080F80346002B42
:10034C00F8D04FF4003000F0A3F80E48002100F074
:10035C0059F808484021002200F0DEFB0548002136
:10036C0000F0BAFB034800F0A1FA054B1B681846D5
:10037C0080BD00BF00380140180000200438014047
:10038C00140000205800024080B485B000AF7860A3
:10039C0039600023FB607B681B68FB60FB6823F4FF
:1003AC00FF4323F07003FB603B689A683B681B6A51
:1003BC001A433B681B691A433B685B691A433B68E9
:1003CC009B691A433B68DB691A433B685B6A1A43B7
:1003DC003B689B6A1343FA681343FB607B68FA68BB
:1003EC001A603B68DA687B685A603B681A687B68FD
:1003FC009A603B685A687B68DA601437BD465DF8D2
:10040C00047B704780B483B000AF78600B46FB7000
:10041C00FB78002B06D07B681B6843F001027B68DD
:10042C001A6006E07B681A684FF6FE7313407A6810
:10043C0013600C37BD465DF8047B704780B485B003
:10044C0000AF78600023FB730023BB607B6803F074
:10045C008053002B03D00C4B1B68BB6002E00B4B92
:10046C001B68BB60BA687B681340002B02D0012369
:10047C00FB7301E00023FB73FB7B18461437BD466E
:10048C005DF8047B704700BF00040240000002408E
:10049C0080B483B000AF78607B6803F08053002B8E
:1004AC0003D0064B7A685A6002E0054B7A685A60B2
:1004BC000C37BD465DF8047B704700BF000402405A
:1004CC000000024080B489B000AF7860396000232E
:1004DC00FB6100233B610023BB610023FB60002315
:1004EC007B610023BB603B68DB7803F00F03FB618F
:1004FC003B68DB7803F01003002B04D03B689B783F
:10050C00FA691343FB613B681B88DBB2002B44D0B8
:10051C007B681B687B610023BB6138E0BB690122EF
:10052C0002FA03F3FB603B681B881A46FB68134016
:10053C003B613A69FB689A4226D1BB699B00FB6020
:10054C00FB680F2202FA03F3BB60BB68DB437A69DA
:10055C0013407B61FB68FA6902FA03F37A6913436F
:10056C007B613B68DB78282B05D1BB6901229A4063
:10057C007B685A6108E03B68DB78482B04D1BB6987
:10058C0001229A407B681A61BB690133BB61BB696C
:10059C00072BC3D97B687A691A603B681B88FF2BD1
:1005AC0046D97B685B687B610023BB613AE0BB6921
:1005BC000833012202FA03F3FB603B681B881A46DE
:1005CC00FB6813403B613A69FB689A4227D1BB69CF
:1005DC009B00FB60FB680F2202FA03F3BB60BB6855
:1005EC00DB437A6913407B61FB68FA6902FA03F317
:1005FC007A6913437B613B68DB78282B05D1BB6997
:10060C00083301229A407B685A613B68DB78482B9F
:10061C0005D1BB69083301229A407B681A61BB691A
:10062C000133BB61BB69072BC1D97B687A695A60FE
:10063C002437BD465DF8047B704700BF80B483B09F
:10064C0000AF78600B467B807A887B685A610C37E8
:10065C00BD465DF8047B704780B487B000AF78600E
:10066C0000237B6100233B610023FB600023BB6004
:10067C004D4B5B6803F00C037B617B69042B07D04B
:10068C00082B09D0002B34D17B68484A1A6034E01F
:10069C007B68464A1A6030E0434B5B6803F4701386
:1006AC003B61414B5B6803F48033FB603B699B0C03
:1006BC0002333B61FB68002B06D13B693C4A02FBD1
:1006CC0003F27B681A6013E0374B5B6803F400336A
:1006DC00002B06D03B69364A02FB03F27B681A609A
:1006EC0006E03B69314A02FB03F27B681A6004E0C6
:1006FC0003E07B682D4A1A6000BF2B4B5B6803F04C
:10070C00F0037B617B691B097B612A4A7B6913447B
:10071C001B78DBB2BB607B681A68BB68DA407B680D
:10072C005A60214B5B6803F4E0637B617B691B0AB5
:10073C007B61204A7B6913441B78DBB2BB607B680E
:10074C005A68BB68DA407B689A60174B5B6803F4A5
:10075C0060537B617B69DB0A7B61164A7B691344BE
:10076C001B78DBB2BB607B685A68BB68DA407B687D
:10077C00DA600D4B5B6803F440437B617B699B0B38
:10078C007B610D4A7B6913441B78DBB2BB607B68D1
:10079C00DA68BB68B2FBF3F27B681A611C37BD46A2
:1007AC005DF8047B704700BF0010024000127A0015
:1007BC0000093D00000000201000002080B483B030
:1007CC0000AF78600B46FB70FB78002B06D0094B12
:1007DC00084A51697A680A435A6106E0054B054A92
:1007EC0051697A68D2430A405A610C37BD465DF8AC
:1007FC00047B70470010024080B483B000AF786077
:10080C000B46FB70FB78002B06D0094B084A91690C
:10081C007A680A439A6106E0054B054A91697A6841
:10082C00D2430A409A610C37BD465DF8047B704791
:10083C000010024080B483B000AF78600B46FB70B0
:10084C00FB78002B06D0094B084AD1687A680A431A
:10085C00DA6006E0054B054AD1687A68D2430A4053
:10086C00DA600C37BD465DF8047B7047001002401F
:10087C0080B483B000AF78600B46FB70FB78002B24
:10088C0006D0094B084A11697A680A431A6106E0D6
:10089C00054B054A11697A68D2430A401A610C3734
:1008AC00BD465DF8047B70470010024080B582B0F5
:1008BC0000AF78607A68264B9A420AD14FF4804098
:1008CC000121FFF7B7FF4FF480400021FFF7B2FF83
:1008DC003AE07A681F4B9A420AD14FF4003001215A
:1008EC00FFF7C6FF4FF400300021FFF7C1FF2BE0EC
:1008FC007A68194B9A420AD14FF480200121FFF7F4
:10090C00B7FF4FF480200021FFF7B2FF1CE07A689C
:10091C00124B9A420AD14FF400200121FFF7A8FF95
:10092C004FF400200021FFF7A3FF0DE07A680C4B79
:10093C009A4209D14FF480100121FFF799FF4FF42F
:10094C0080100021FFF794FF0837BD4680BD00BF23
:10095C00003801400044004000480040004C00407A
:10096C000050004080B58CB000AF78603960002337
:10097C00FB620023BB6200237B6200233B620023EB
:10098C00FB617B68FB617B681B8A9BB2FB62FA6A2A
:10099C004CF6FF731340FB623B68DB88FA6A134327
:1009AC00FB62FB6A9AB27B681A827B689B899BB25A
:1009BC00FB62FA6A4EF6F3131340FB623B689A88AB
:1009CC003B681B8913439AB23B685B8913439BB208
:1009DC00FA6A1343FB62FB6A9AB27B689A817B6862
:1009EC009B8A9BB2FB62FA6A4FF6FF431340FB6291
:1009FC003B689B89FA6A1343FB62FB6A9AB27B6879
:100A0C009A8207F108031846FFF726FEFA69304B65
:100A1C009A4202D17B69BB6201E03B69BB627B6895
:100A2C009B899BB29BB21BB2002B0CDABA6A1346A1
:100A3C009B0013449A001A443B681B685B00B2FB92
:100A4C00F3F37B620BE0BA6A13469B0013449A00E3
:100A5C001A443B681B689B00B2FBF3F37B627A6A17
:100A6C001C4BA3FB02135B091B01FB62FB6A1B09FA
:100A7C00642202FB03F37A6AD31A3B627B689B897C
:100A8C009BB29BB21BB2002B0DDA3B6ADB0003F16D
:100A9C003202104BA3FB02135B0903F00703FA6A43
:100AAC001343FB620CE03B6A1B0103F13202094B5E
:100ABC00A3FB02135B0903F00F03FA6A1343FB62F7
:100ACC00FB6A9AB27B681A813037BD4680BD00BF85
:100ADC00003801401F85EB5180B483B000AF7860C3
:100AEC000B46FB70FB78002B08D07B689B899BB274
:100AFC0043F400539AB27B689A8107E07B689B8928
:100B0C009BB223F400539AB27B689A810C37BD4692
:100B1C005DF8047B704700BF80B483B000AF786091
:100B2C0013460A467A807B707B78002B08D07B6852
:100B3C009B8A9AB27B8813439AB27B689A8209E0AB
:100B4C007B689B8A9AB27B88DB439BB213409AB238
:100B5C007B689A820C37BD465DF8047B704700BFFA
:100B6C0080B582B000AF154A154BD31A9B103B6071
:100B7C0000237B6007E0124B7A6853F822309847C9
:100B8C007B6801337B607A683B689A42F3D30D4AE9
:100B9C000D4BD31A9B103B6000237B6007E00A4B84
:100BAC007A6853F8223098477B6801337B607A6807
:100BBC003B689A42F3D30837BD4680BDEC01000870
:100BCC00E8010008EC010008EC01000880B582B0D7
:100BDC0000AF0B4A0B4BD31A9B103B603B687B60FE
:100BEC0008E07B685A1E074B53F8223098477B6805
:100BFC00013B7B607B68002BF3D10837BD4680BD81
:100C0C00EC010008EC01000880B483B000AF786000
:100C1C00FEE700BF80B500AF154B154A126842F0D5
:100C2C0001021A60124A124B5968124B0B40536066
:100C3C000F4A0F4B1B6823F0847323F4803313602B
:100C4C000B4B0B4A126822F480221A60084B084A9C
:100C5C00526822F4FE025A60054B4FF41F029A6050
:100C6C0000F00CF8044B4FF000629A6080BD00BF9E
:100C7C00001002400000FFF800ED00E080B500AF6E
:100C8C0000F002F880BD00BF80B483B000AF002339
:100C9C007B6000233B603A4B394A126842F4803245
:100CAC001A60374B1B6803F400333B607B680133DD
:100CBC007B603B68002B03D17B68B3F5A06FF0D150
:100CCC002F4B1B6803F40033002B02D001233B6035
:100CDC0001E000233B603B68012B4BD1294B294A97
:100CEC00126842F010021A60264B264A126822F053
:100CFC0003021A60234B234A126842F002021A6064
:100D0C001F4B1F4A52685A601D4B1D4A52685A604D
:100D1C001B4B1B4A526842F480625A60184B184AAB
:100D2C00526822F47C125A60154B154A526842F4F0
:100D3C00E8125A60124B124A126842F080721A6022
:100D4C0000BF0F4B1B6803F00073002BF9D00C4B4A
:100D5C000B4A526822F003025A60094B084A526847
:100D6C0042F002025A6000BF054B5B6803F00C03B3
:100D7C00082BF9D10C37BD465DF8047B704700BFDA
:080D8C000010024000200240AB
:100D9400000000000102030401020304060708091D
:040DA4000204060837
:040000050800010DE1
:00000001FF
